{
	"contracts/polygon.sol": {
		"BorrowingLendingPlatform": {
			"abi": [
				{
					"anonymous": false,
					"inputs": [
						{
							"indexed": true,
							"internalType": "address",
							"name": "user",
							"type": "address"
						},
						{
							"indexed": false,
							"internalType": "uint256",
							"name": "amount",
							"type": "uint256"
						}
					],
					"name": "Borrowed",
					"type": "event"
				},
				{
					"anonymous": false,
					"inputs": [
						{
							"indexed": true,
							"internalType": "address",
							"name": "user",
							"type": "address"
						},
						{
							"indexed": false,
							"internalType": "uint256",
							"name": "amount",
							"type": "uint256"
						}
					],
					"name": "CollateralWithdrawn",
					"type": "event"
				},
				{
					"anonymous": false,
					"inputs": [
						{
							"indexed": true,
							"internalType": "address",
							"name": "user",
							"type": "address"
						},
						{
							"indexed": false,
							"internalType": "uint256",
							"name": "amount",
							"type": "uint256"
						}
					],
					"name": "Deposited",
					"type": "event"
				},
				{
					"anonymous": false,
					"inputs": [
						{
							"indexed": true,
							"internalType": "address",
							"name": "user",
							"type": "address"
						},
						{
							"indexed": false,
							"internalType": "uint256",
							"name": "amount",
							"type": "uint256"
						}
					],
					"name": "Repaid",
					"type": "event"
				},
				{
					"inputs": [],
					"name": "COLLATERAL_RATIO",
					"outputs": [
						{
							"internalType": "uint256",
							"name": "",
							"type": "uint256"
						}
					],
					"stateMutability": "view",
					"type": "function"
				},
				{
					"inputs": [],
					"name": "DECIMALS",
					"outputs": [
						{
							"internalType": "uint256",
							"name": "",
							"type": "uint256"
						}
					],
					"stateMutability": "view",
					"type": "function"
				},
				{
					"inputs": [
						{
							"internalType": "uint256",
							"name": "borrowAmount",
							"type": "uint256"
						}
					],
					"name": "borrow",
					"outputs": [],
					"stateMutability": "nonpayable",
					"type": "function"
				},
				{
					"inputs": [
						{
							"internalType": "address",
							"name": "",
							"type": "address"
						}
					],
					"name": "borrowedBalance",
					"outputs": [
						{
							"internalType": "uint256",
							"name": "",
							"type": "uint256"
						}
					],
					"stateMutability": "view",
					"type": "function"
				},
				{
					"inputs": [
						{
							"internalType": "address",
							"name": "",
							"type": "address"
						}
					],
					"name": "collateralBalance",
					"outputs": [
						{
							"internalType": "uint256",
							"name": "",
							"type": "uint256"
						}
					],
					"stateMutability": "view",
					"type": "function"
				},
				{
					"inputs": [],
					"name": "depositCollateral",
					"outputs": [],
					"stateMutability": "payable",
					"type": "function"
				},
				{
					"inputs": [
						{
							"internalType": "address",
							"name": "user",
							"type": "address"
						}
					],
					"name": "getMaxBorrowable",
					"outputs": [
						{
							"internalType": "uint256",
							"name": "",
							"type": "uint256"
						}
					],
					"stateMutability": "view",
					"type": "function"
				},
				{
					"inputs": [],
					"name": "repayLoan",
					"outputs": [],
					"stateMutability": "payable",
					"type": "function"
				},
				{
					"inputs": [
						{
							"internalType": "uint256",
							"name": "withdrawAmount",
							"type": "uint256"
						}
					],
					"name": "withdrawCollateral",
					"outputs": [],
					"stateMutability": "nonpayable",
					"type": "function"
				}
			],
			"devdoc": {
				"kind": "dev",
				"methods": {
					"getMaxBorrowable(address)": {
						"details": "View the user's max borrowable amount."
					}
				},
				"version": 1
			},
			"evm": {
				"assembly": "    /* \"contracts/polygon.sol\":57:2362  contract BorrowingLendingPlatform {... */\n  mstore(0x40, 0x80)\n  callvalue\n  dup1\n  iszero\n  tag_1\n  jumpi\n  0x00\n  dup1\n  revert\ntag_1:\n  pop\n  dataSize(sub_0)\n  dup1\n  dataOffset(sub_0)\n  0x00\n  codecopy\n  0x00\n  return\nstop\n\nsub_0: assembly {\n        /* \"contracts/polygon.sol\":57:2362  contract BorrowingLendingPlatform {... */\n      mstore(0x40, 0x80)\n      jumpi(tag_1, lt(calldatasize, 0x04))\n      shr(0xe0, calldataload(0x00))\n      dup1\n      0x95ec2c8a\n      gt\n      tag_11\n      jumpi\n      dup1\n      0x95ec2c8a\n      eq\n      tag_6\n      jumpi\n      dup1\n      0xa1bf2840\n      eq\n      tag_7\n      jumpi\n      dup1\n      0xc5ebeaec\n      eq\n      tag_8\n      jumpi\n      dup1\n      0xd9e69a05\n      eq\n      tag_9\n      jumpi\n      dup1\n      0xf966ade7\n      eq\n      tag_10\n      jumpi\n      jump(tag_1)\n    tag_11:\n      dup1\n      0x02b28d4b\n      eq\n      tag_2\n      jumpi\n      dup1\n      0x2e0f2625\n      eq\n      tag_3\n      jumpi\n      dup1\n      0x6112fe2e\n      eq\n      tag_4\n      jumpi\n      dup1\n      0x6f758140\n      eq\n      tag_5\n      jumpi\n    tag_1:\n      0x00\n      dup1\n      revert\n        /* \"contracts/polygon.sol\":432:482  mapping(address => uint256) public borrowedBalance */\n    tag_2:\n      callvalue\n      dup1\n      iszero\n      tag_12\n      jumpi\n      0x00\n      dup1\n      revert\n    tag_12:\n      pop\n      tag_13\n      0x04\n      dup1\n      calldatasize\n      sub\n      dup2\n      add\n      swap1\n      tag_14\n      swap2\n      swap1\n      tag_15\n      jump\t// in\n    tag_14:\n      tag_16\n      jump\t// in\n    tag_13:\n      mload(0x40)\n      tag_17\n      swap2\n      swap1\n      tag_18\n      jump\t// in\n    tag_17:\n      mload(0x40)\n      dup1\n      swap2\n      sub\n      swap1\n      return\n        /* \"contracts/polygon.sol\":542:580  uint256 public constant DECIMALS = 100 */\n    tag_3:\n      callvalue\n      dup1\n      iszero\n      tag_19\n      jumpi\n      0x00\n      dup1\n      revert\n    tag_19:\n      pop\n      tag_20\n      tag_21\n      jump\t// in\n    tag_20:\n      mload(0x40)\n      tag_22\n      swap2\n      swap1\n      tag_18\n      jump\t// in\n    tag_22:\n      mload(0x40)\n      dup1\n      swap2\n      sub\n      swap1\n      return\n        /* \"contracts/polygon.sol\":1599:2136  function withdrawCollateral(uint256 withdrawAmount) external {... */\n    tag_4:\n      callvalue\n      dup1\n      iszero\n      tag_23\n      jumpi\n      0x00\n      dup1\n      revert\n    tag_23:\n      pop\n      tag_24\n      0x04\n      dup1\n      calldatasize\n      sub\n      dup2\n      add\n      swap1\n      tag_25\n      swap2\n      swap1\n      tag_26\n      jump\t// in\n    tag_25:\n      tag_27\n      jump\t// in\n    tag_24:\n      stop\n        /* \"contracts/polygon.sol\":587:803  function depositCollateral() external payable {... */\n    tag_5:\n      tag_28\n      tag_29\n      jump\t// in\n    tag_28:\n      stop\n        /* \"contracts/polygon.sol\":2209:2360  function getMaxBorrowable(address user) external view returns (uint256) {... */\n    tag_6:\n      callvalue\n      dup1\n      iszero\n      tag_30\n      jumpi\n      0x00\n      dup1\n      revert\n    tag_30:\n      pop\n      tag_31\n      0x04\n      dup1\n      calldatasize\n      sub\n      dup2\n      add\n      swap1\n      tag_32\n      swap2\n      swap1\n      tag_15\n      jump\t// in\n    tag_32:\n      tag_33\n      jump\t// in\n    tag_31:\n      mload(0x40)\n      tag_34\n      swap2\n      swap1\n      tag_18\n      jump\t// in\n    tag_34:\n      mload(0x40)\n      dup1\n      swap2\n      sub\n      swap1\n      return\n        /* \"contracts/polygon.sol\":374:426  mapping(address => uint256) public collateralBalance */\n    tag_7:\n      callvalue\n      dup1\n      iszero\n      tag_35\n      jumpi\n      0x00\n      dup1\n      revert\n    tag_35:\n      pop\n      tag_36\n      0x04\n      dup1\n      calldatasize\n      sub\n      dup2\n      add\n      swap1\n      tag_37\n      swap2\n      swap1\n      tag_15\n      jump\t// in\n    tag_37:\n      tag_38\n      jump\t// in\n    tag_36:\n      mload(0x40)\n      tag_39\n      swap2\n      swap1\n      tag_18\n      jump\t// in\n    tag_39:\n      mload(0x40)\n      dup1\n      swap2\n      sub\n      swap1\n      return\n        /* \"contracts/polygon.sol\":809:1276  function borrow(uint256 borrowAmount) external {... */\n    tag_8:\n      callvalue\n      dup1\n      iszero\n      tag_40\n      jumpi\n      0x00\n      dup1\n      revert\n    tag_40:\n      pop\n      tag_41\n      0x04\n      dup1\n      calldatasize\n      sub\n      dup2\n      add\n      swap1\n      tag_42\n      swap2\n      swap1\n      tag_26\n      jump\t// in\n    tag_42:\n      tag_43\n      jump\t// in\n    tag_41:\n      stop\n        /* \"contracts/polygon.sol\":489:535  uint256 public constant COLLATERAL_RATIO = 150 */\n    tag_9:\n      callvalue\n      dup1\n      iszero\n      tag_44\n      jumpi\n      0x00\n      dup1\n      revert\n    tag_44:\n      pop\n      tag_45\n      tag_46\n      jump\t// in\n    tag_45:\n      mload(0x40)\n      tag_47\n      swap2\n      swap1\n      tag_18\n      jump\t// in\n    tag_47:\n      mload(0x40)\n      dup1\n      swap2\n      sub\n      swap1\n      return\n        /* \"contracts/polygon.sol\":1282:1593  function repayLoan() external payable {... */\n    tag_10:\n      tag_48\n      tag_49\n      jump\t// in\n    tag_48:\n      stop\n        /* \"contracts/polygon.sol\":432:482  mapping(address => uint256) public borrowedBalance */\n    tag_16:\n      mstore(0x20, 0x01)\n      dup1\n      0x00\n      mstore\n      keccak256(0x00, 0x40)\n      0x00\n      swap2\n      pop\n      swap1\n      pop\n      sload\n      dup2\n      jump\t// out\n        /* \"contracts/polygon.sol\":542:580  uint256 public constant DECIMALS = 100 */\n    tag_21:\n        /* \"contracts/polygon.sol\":577:580  100 */\n      0x64\n        /* \"contracts/polygon.sol\":542:580  uint256 public constant DECIMALS = 100 */\n      dup2\n      jump\t// out\n        /* \"contracts/polygon.sol\":1599:2136  function withdrawCollateral(uint256 withdrawAmount) external {... */\n    tag_27:\n        /* \"contracts/polygon.sol\":1695:1696  0 */\n      0x00\n        /* \"contracts/polygon.sol\":1678:1692  withdrawAmount */\n      dup2\n        /* \"contracts/polygon.sol\":1678:1696  withdrawAmount > 0 */\n      gt\n        /* \"contracts/polygon.sol\":1670:1739  require(withdrawAmount > 0, \"Withdraw amount must be greater than 0\") */\n      tag_51\n      jumpi\n      mload(0x40)\n      0x08c379a000000000000000000000000000000000000000000000000000000000\n      dup2\n      mstore\n      0x04\n      add\n      tag_52\n      swap1\n      tag_53\n      jump\t// in\n    tag_52:\n      mload(0x40)\n      dup1\n      swap2\n      sub\n      swap1\n      revert\n    tag_51:\n        /* \"contracts/polygon.sol\":1788:1789  0 */\n      0x00\n        /* \"contracts/polygon.sol\":1757:1772  borrowedBalance */\n      0x01\n        /* \"contracts/polygon.sol\":1757:1784  borrowedBalance[msg.sender] */\n      0x00\n        /* \"contracts/polygon.sol\":1773:1783  msg.sender */\n      caller\n        /* \"contracts/polygon.sol\":1757:1784  borrowedBalance[msg.sender] */\n      0xffffffffffffffffffffffffffffffffffffffff\n      and\n      0xffffffffffffffffffffffffffffffffffffffff\n      and\n      dup2\n      mstore\n      0x20\n      add\n      swap1\n      dup2\n      mstore\n      0x20\n      add\n      0x00\n      keccak256\n      sload\n        /* \"contracts/polygon.sol\":1757:1789  borrowedBalance[msg.sender] == 0 */\n      eq\n        /* \"contracts/polygon.sol\":1749:1842  require(borrowedBalance[msg.sender] == 0, \"Cannot withdraw collateral with outstanding loan\") */\n      tag_54\n      jumpi\n      mload(0x40)\n      0x08c379a000000000000000000000000000000000000000000000000000000000\n      dup2\n      mstore\n      0x04\n      add\n      tag_55\n      swap1\n      tag_56\n      jump\t// in\n    tag_55:\n      mload(0x40)\n      dup1\n      swap2\n      sub\n      swap1\n      revert\n    tag_54:\n        /* \"contracts/polygon.sol\":1893:1907  withdrawAmount */\n      dup1\n        /* \"contracts/polygon.sol\":1860:1877  collateralBalance */\n      0x00\n        /* \"contracts/polygon.sol\":1860:1889  collateralBalance[msg.sender] */\n      dup1\n        /* \"contracts/polygon.sol\":1878:1888  msg.sender */\n      caller\n        /* \"contracts/polygon.sol\":1860:1889  collateralBalance[msg.sender] */\n      0xffffffffffffffffffffffffffffffffffffffff\n      and\n      0xffffffffffffffffffffffffffffffffffffffff\n      and\n      dup2\n      mstore\n      0x20\n      add\n      swap1\n      dup2\n      mstore\n      0x20\n      add\n      0x00\n      keccak256\n      sload\n        /* \"contracts/polygon.sol\":1860:1907  collateralBalance[msg.sender] >= withdrawAmount */\n      lt\n      iszero\n        /* \"contracts/polygon.sol\":1852:1954  require(collateralBalance[msg.sender] >= withdrawAmount, \"Withdraw amount exceeds collateral balance\") */\n      tag_57\n      jumpi\n      mload(0x40)\n      0x08c379a000000000000000000000000000000000000000000000000000000000\n      dup2\n      mstore\n      0x04\n      add\n      tag_58\n      swap1\n      tag_59\n      jump\t// in\n    tag_58:\n      mload(0x40)\n      dup1\n      swap2\n      sub\n      swap1\n      revert\n    tag_57:\n        /* \"contracts/polygon.sol\":1998:2012  withdrawAmount */\n      dup1\n        /* \"contracts/polygon.sol\":1965:1982  collateralBalance */\n      0x00\n        /* \"contracts/polygon.sol\":1965:1994  collateralBalance[msg.sender] */\n      dup1\n        /* \"contracts/polygon.sol\":1983:1993  msg.sender */\n      caller\n        /* \"contracts/polygon.sol\":1965:1994  collateralBalance[msg.sender] */\n      0xffffffffffffffffffffffffffffffffffffffff\n      and\n      0xffffffffffffffffffffffffffffffffffffffff\n      and\n      dup2\n      mstore\n      0x20\n      add\n      swap1\n      dup2\n      mstore\n      0x20\n      add\n      0x00\n      keccak256\n      0x00\n        /* \"contracts/polygon.sol\":1965:2012  collateralBalance[msg.sender] -= withdrawAmount */\n      dup3\n      dup3\n      sload\n      tag_60\n      swap2\n      swap1\n      tag_61\n      jump\t// in\n    tag_60:\n      swap3\n      pop\n      pop\n      dup2\n      swap1\n      sstore\n      pop\n        /* \"contracts/polygon.sol\":2030:2040  msg.sender */\n      caller\n        /* \"contracts/polygon.sol\":2022:2050  payable(msg.sender).transfer */\n      0xffffffffffffffffffffffffffffffffffffffff\n      and\n        /* \"contracts/polygon.sol\":2022:2066  payable(msg.sender).transfer(withdrawAmount) */\n      0x08fc\n        /* \"contracts/polygon.sol\":2051:2065  withdrawAmount */\n      dup3\n        /* \"contracts/polygon.sol\":2022:2066  payable(msg.sender).transfer(withdrawAmount) */\n      swap1\n      dup2\n      iszero\n      mul\n      swap1\n      mload(0x40)\n      0x00\n      mload(0x40)\n      dup1\n      dup4\n      sub\n      dup2\n      dup6\n      dup9\n      dup9\n      call\n      swap4\n      pop\n      pop\n      pop\n      pop\n      iszero\n      dup1\n      iszero\n      tag_63\n      jumpi\n      returndatasize\n      0x00\n      dup1\n      returndatacopy\n      revert(0x00, returndatasize)\n    tag_63:\n      pop\n        /* \"contracts/polygon.sol\":2102:2112  msg.sender */\n      caller\n        /* \"contracts/polygon.sol\":2082:2129  CollateralWithdrawn(msg.sender, withdrawAmount) */\n      0xffffffffffffffffffffffffffffffffffffffff\n      and\n      0xc30fcfbcaac9e0deffa719714eaa82396ff506a0d0d0eebe170830177288715d\n        /* \"contracts/polygon.sol\":2114:2128  withdrawAmount */\n      dup3\n        /* \"contracts/polygon.sol\":2082:2129  CollateralWithdrawn(msg.sender, withdrawAmount) */\n      mload(0x40)\n      tag_64\n      swap2\n      swap1\n      tag_18\n      jump\t// in\n    tag_64:\n      mload(0x40)\n      dup1\n      swap2\n      sub\n      swap1\n      log2\n        /* \"contracts/polygon.sol\":1599:2136  function withdrawCollateral(uint256 withdrawAmount) external {... */\n      pop\n      jump\t// out\n        /* \"contracts/polygon.sol\":587:803  function depositCollateral() external payable {... */\n    tag_29:\n        /* \"contracts/polygon.sol\":663:664  0 */\n      0x00\n        /* \"contracts/polygon.sol\":651:660  msg.value */\n      callvalue\n        /* \"contracts/polygon.sol\":651:664  msg.value > 0 */\n      gt\n        /* \"contracts/polygon.sol\":643:697  require(msg.value > 0, \"Must deposit some collateral\") */\n      tag_66\n      jumpi\n      mload(0x40)\n      0x08c379a000000000000000000000000000000000000000000000000000000000\n      dup2\n      mstore\n      0x04\n      add\n      tag_67\n      swap1\n      tag_68\n      jump\t// in\n    tag_67:\n      mload(0x40)\n      dup1\n      swap2\n      sub\n      swap1\n      revert\n    tag_66:\n        /* \"contracts/polygon.sol\":740:749  msg.value */\n      callvalue\n        /* \"contracts/polygon.sol\":707:724  collateralBalance */\n      0x00\n        /* \"contracts/polygon.sol\":707:736  collateralBalance[msg.sender] */\n      dup1\n        /* \"contracts/polygon.sol\":725:735  msg.sender */\n      caller\n        /* \"contracts/polygon.sol\":707:736  collateralBalance[msg.sender] */\n      0xffffffffffffffffffffffffffffffffffffffff\n      and\n      0xffffffffffffffffffffffffffffffffffffffff\n      and\n      dup2\n      mstore\n      0x20\n      add\n      swap1\n      dup2\n      mstore\n      0x20\n      add\n      0x00\n      keccak256\n      0x00\n        /* \"contracts/polygon.sol\":707:749  collateralBalance[msg.sender] += msg.value */\n      dup3\n      dup3\n      sload\n      tag_69\n      swap2\n      swap1\n      tag_70\n      jump\t// in\n    tag_69:\n      swap3\n      pop\n      pop\n      dup2\n      swap1\n      sstore\n      pop\n        /* \"contracts/polygon.sol\":774:784  msg.sender */\n      caller\n        /* \"contracts/polygon.sol\":764:796  Deposited(msg.sender, msg.value) */\n      0xffffffffffffffffffffffffffffffffffffffff\n      and\n      0x2da466a7b24304f47e87fa2e1e5a81b9831ce54fec19055ce277ca2f39ba42c4\n        /* \"contracts/polygon.sol\":786:795  msg.value */\n      callvalue\n        /* \"contracts/polygon.sol\":764:796  Deposited(msg.sender, msg.value) */\n      mload(0x40)\n      tag_71\n      swap2\n      swap1\n      tag_18\n      jump\t// in\n    tag_71:\n      mload(0x40)\n      dup1\n      swap2\n      sub\n      swap1\n      log2\n        /* \"contracts/polygon.sol\":587:803  function depositCollateral() external payable {... */\n      jump\t// out\n        /* \"contracts/polygon.sol\":2209:2360  function getMaxBorrowable(address user) external view returns (uint256) {... */\n    tag_33:\n        /* \"contracts/polygon.sol\":2272:2279  uint256 */\n      0x00\n        /* \"contracts/polygon.sol\":532:535  150 */\n      0x96\n        /* \"contracts/polygon.sol\":577:580  100 */\n      0x64\n        /* \"contracts/polygon.sol\":2299:2316  collateralBalance */\n      0x00\n        /* \"contracts/polygon.sol\":2299:2322  collateralBalance[user] */\n      dup1\n        /* \"contracts/polygon.sol\":2317:2321  user */\n      dup6\n        /* \"contracts/polygon.sol\":2299:2322  collateralBalance[user] */\n      0xffffffffffffffffffffffffffffffffffffffff\n      and\n      0xffffffffffffffffffffffffffffffffffffffff\n      and\n      dup2\n      mstore\n      0x20\n      add\n      swap1\n      dup2\n      mstore\n      0x20\n      add\n      0x00\n      keccak256\n      sload\n        /* \"contracts/polygon.sol\":2299:2333  collateralBalance[user] * DECIMALS */\n      tag_73\n      swap2\n      swap1\n      tag_74\n      jump\t// in\n    tag_73:\n        /* \"contracts/polygon.sol\":2298:2353  (collateralBalance[user] * DECIMALS) / COLLATERAL_RATIO */\n      tag_75\n      swap2\n      swap1\n      tag_76\n      jump\t// in\n    tag_75:\n        /* \"contracts/polygon.sol\":2291:2353  return (collateralBalance[user] * DECIMALS) / COLLATERAL_RATIO */\n      swap1\n      pop\n        /* \"contracts/polygon.sol\":2209:2360  function getMaxBorrowable(address user) external view returns (uint256) {... */\n      swap2\n      swap1\n      pop\n      jump\t// out\n        /* \"contracts/polygon.sol\":374:426  mapping(address => uint256) public collateralBalance */\n    tag_38:\n      mstore(0x20, 0x00)\n      dup1\n      0x00\n      mstore\n      keccak256(0x00, 0x40)\n      0x00\n      swap2\n      pop\n      swap1\n      pop\n      sload\n      dup2\n      jump\t// out\n        /* \"contracts/polygon.sol\":809:1276  function borrow(uint256 borrowAmount) external {... */\n    tag_43:\n        /* \"contracts/polygon.sol\":866:887  uint256 maxBorrowable */\n      0x00\n        /* \"contracts/polygon.sol\":532:535  150 */\n      0x96\n        /* \"contracts/polygon.sol\":577:580  100 */\n      0x64\n        /* \"contracts/polygon.sol\":891:908  collateralBalance */\n      0x00\n        /* \"contracts/polygon.sol\":891:920  collateralBalance[msg.sender] */\n      dup1\n        /* \"contracts/polygon.sol\":909:919  msg.sender */\n      caller\n        /* \"contracts/polygon.sol\":891:920  collateralBalance[msg.sender] */\n      0xffffffffffffffffffffffffffffffffffffffff\n      and\n      0xffffffffffffffffffffffffffffffffffffffff\n      and\n      dup2\n      mstore\n      0x20\n      add\n      swap1\n      dup2\n      mstore\n      0x20\n      add\n      0x00\n      keccak256\n      sload\n        /* \"contracts/polygon.sol\":891:931  collateralBalance[msg.sender] * DECIMALS */\n      tag_78\n      swap2\n      swap1\n      tag_74\n      jump\t// in\n    tag_78:\n        /* \"contracts/polygon.sol\":890:951  (collateralBalance[msg.sender] * DECIMALS) / COLLATERAL_RATIO */\n      tag_79\n      swap2\n      swap1\n      tag_76\n      jump\t// in\n    tag_79:\n        /* \"contracts/polygon.sol\":866:951  uint256 maxBorrowable = (collateralBalance[msg.sender] * DECIMALS) / COLLATERAL_RATIO */\n      swap1\n      pop\n        /* \"contracts/polygon.sol\":984:985  0 */\n      0x00\n        /* \"contracts/polygon.sol\":969:981  borrowAmount */\n      dup3\n        /* \"contracts/polygon.sol\":969:985  borrowAmount > 0 */\n      gt\n        /* \"contracts/polygon.sol\":961:1026  require(borrowAmount > 0, \"Borrow amount must be greater than 0\") */\n      tag_80\n      jumpi\n      mload(0x40)\n      0x08c379a000000000000000000000000000000000000000000000000000000000\n      dup2\n      mstore\n      0x04\n      add\n      tag_81\n      swap1\n      tag_82\n      jump\t// in\n    tag_81:\n      mload(0x40)\n      dup1\n      swap2\n      sub\n      swap1\n      revert\n    tag_80:\n        /* \"contracts/polygon.sol\":1060:1073  maxBorrowable */\n      dup1\n        /* \"contracts/polygon.sol\":1044:1056  borrowAmount */\n      dup3\n        /* \"contracts/polygon.sol\":1044:1073  borrowAmount <= maxBorrowable */\n      gt\n      iszero\n        /* \"contracts/polygon.sol\":1036:1113  require(borrowAmount <= maxBorrowable, \"Borrow amount exceeds allowed limit\") */\n      tag_83\n      jumpi\n      mload(0x40)\n      0x08c379a000000000000000000000000000000000000000000000000000000000\n      dup2\n      mstore\n      0x04\n      add\n      tag_84\n      swap1\n      tag_85\n      jump\t// in\n    tag_84:\n      mload(0x40)\n      dup1\n      swap2\n      sub\n      swap1\n      revert\n    tag_83:\n        /* \"contracts/polygon.sol\":1155:1167  borrowAmount */\n      dup2\n        /* \"contracts/polygon.sol\":1124:1139  borrowedBalance */\n      0x01\n        /* \"contracts/polygon.sol\":1124:1151  borrowedBalance[msg.sender] */\n      0x00\n        /* \"contracts/polygon.sol\":1140:1150  msg.sender */\n      caller\n        /* \"contracts/polygon.sol\":1124:1151  borrowedBalance[msg.sender] */\n      0xffffffffffffffffffffffffffffffffffffffff\n      and\n      0xffffffffffffffffffffffffffffffffffffffff\n      and\n      dup2\n      mstore\n      0x20\n      add\n      swap1\n      dup2\n      mstore\n      0x20\n      add\n      0x00\n      keccak256\n      0x00\n        /* \"contracts/polygon.sol\":1124:1167  borrowedBalance[msg.sender] += borrowAmount */\n      dup3\n      dup3\n      sload\n      tag_86\n      swap2\n      swap1\n      tag_70\n      jump\t// in\n    tag_86:\n      swap3\n      pop\n      pop\n      dup2\n      swap1\n      sstore\n      pop\n        /* \"contracts/polygon.sol\":1185:1195  msg.sender */\n      caller\n        /* \"contracts/polygon.sol\":1177:1205  payable(msg.sender).transfer */\n      0xffffffffffffffffffffffffffffffffffffffff\n      and\n        /* \"contracts/polygon.sol\":1177:1219  payable(msg.sender).transfer(borrowAmount) */\n      0x08fc\n        /* \"contracts/polygon.sol\":1206:1218  borrowAmount */\n      dup4\n        /* \"contracts/polygon.sol\":1177:1219  payable(msg.sender).transfer(borrowAmount) */\n      swap1\n      dup2\n      iszero\n      mul\n      swap1\n      mload(0x40)\n      0x00\n      mload(0x40)\n      dup1\n      dup4\n      sub\n      dup2\n      dup6\n      dup9\n      dup9\n      call\n      swap4\n      pop\n      pop\n      pop\n      pop\n      iszero\n      dup1\n      iszero\n      tag_88\n      jumpi\n      returndatasize\n      0x00\n      dup1\n      returndatacopy\n      revert(0x00, returndatasize)\n    tag_88:\n      pop\n        /* \"contracts/polygon.sol\":1244:1254  msg.sender */\n      caller\n        /* \"contracts/polygon.sol\":1235:1269  Borrowed(msg.sender, borrowAmount) */\n      0xffffffffffffffffffffffffffffffffffffffff\n      and\n      0xac59582e5396aca512fa873a2047e7f4c80f8f55d4a06cb34a78a0187f62719f\n        /* \"contracts/polygon.sol\":1256:1268  borrowAmount */\n      dup4\n        /* \"contracts/polygon.sol\":1235:1269  Borrowed(msg.sender, borrowAmount) */\n      mload(0x40)\n      tag_89\n      swap2\n      swap1\n      tag_18\n      jump\t// in\n    tag_89:\n      mload(0x40)\n      dup1\n      swap2\n      sub\n      swap1\n      log2\n        /* \"contracts/polygon.sol\":856:1276  {... */\n      pop\n        /* \"contracts/polygon.sol\":809:1276  function borrow(uint256 borrowAmount) external {... */\n      pop\n      jump\t// out\n        /* \"contracts/polygon.sol\":489:535  uint256 public constant COLLATERAL_RATIO = 150 */\n    tag_46:\n        /* \"contracts/polygon.sol\":532:535  150 */\n      0x96\n        /* \"contracts/polygon.sol\":489:535  uint256 public constant COLLATERAL_RATIO = 150 */\n      dup2\n      jump\t// out\n        /* \"contracts/polygon.sol\":1282:1593  function repayLoan() external payable {... */\n    tag_49:\n        /* \"contracts/polygon.sol\":1350:1351  0 */\n      0x00\n        /* \"contracts/polygon.sol\":1338:1347  msg.value */\n      callvalue\n        /* \"contracts/polygon.sol\":1338:1351  msg.value > 0 */\n      gt\n        /* \"contracts/polygon.sol\":1330:1391  require(msg.value > 0, \"Repay amount must be greater than 0\") */\n      tag_91\n      jumpi\n      mload(0x40)\n      0x08c379a000000000000000000000000000000000000000000000000000000000\n      dup2\n      mstore\n      0x04\n      add\n      tag_92\n      swap1\n      tag_93\n      jump\t// in\n    tag_92:\n      mload(0x40)\n      dup1\n      swap2\n      sub\n      swap1\n      revert\n    tag_91:\n        /* \"contracts/polygon.sol\":1440:1449  msg.value */\n      callvalue\n        /* \"contracts/polygon.sol\":1409:1424  borrowedBalance */\n      0x01\n        /* \"contracts/polygon.sol\":1409:1436  borrowedBalance[msg.sender] */\n      0x00\n        /* \"contracts/polygon.sol\":1425:1435  msg.sender */\n      caller\n        /* \"contracts/polygon.sol\":1409:1436  borrowedBalance[msg.sender] */\n      0xffffffffffffffffffffffffffffffffffffffff\n      and\n      0xffffffffffffffffffffffffffffffffffffffff\n      and\n      dup2\n      mstore\n      0x20\n      add\n      swap1\n      dup2\n      mstore\n      0x20\n      add\n      0x00\n      keccak256\n      sload\n        /* \"contracts/polygon.sol\":1409:1449  borrowedBalance[msg.sender] >= msg.value */\n      lt\n      iszero\n        /* \"contracts/polygon.sol\":1401:1491  require(borrowedBalance[msg.sender] >= msg.value, \"Repay amount exceeds borrowed balance\") */\n      tag_94\n      jumpi\n      mload(0x40)\n      0x08c379a000000000000000000000000000000000000000000000000000000000\n      dup2\n      mstore\n      0x04\n      add\n      tag_95\n      swap1\n      tag_96\n      jump\t// in\n    tag_95:\n      mload(0x40)\n      dup1\n      swap2\n      sub\n      swap1\n      revert\n    tag_94:\n        /* \"contracts/polygon.sol\":1533:1542  msg.value */\n      callvalue\n        /* \"contracts/polygon.sol\":1502:1517  borrowedBalance */\n      0x01\n        /* \"contracts/polygon.sol\":1502:1529  borrowedBalance[msg.sender] */\n      0x00\n        /* \"contracts/polygon.sol\":1518:1528  msg.sender */\n      caller\n        /* \"contracts/polygon.sol\":1502:1529  borrowedBalance[msg.sender] */\n      0xffffffffffffffffffffffffffffffffffffffff\n      and\n      0xffffffffffffffffffffffffffffffffffffffff\n      and\n      dup2\n      mstore\n      0x20\n      add\n      swap1\n      dup2\n      mstore\n      0x20\n      add\n      0x00\n      keccak256\n      0x00\n        /* \"contracts/polygon.sol\":1502:1542  borrowedBalance[msg.sender] -= msg.value */\n      dup3\n      dup3\n      sload\n      tag_97\n      swap2\n      swap1\n      tag_61\n      jump\t// in\n    tag_97:\n      swap3\n      pop\n      pop\n      dup2\n      swap1\n      sstore\n      pop\n        /* \"contracts/polygon.sol\":1564:1574  msg.sender */\n      caller\n        /* \"contracts/polygon.sol\":1557:1586  Repaid(msg.sender, msg.value) */\n      0xffffffffffffffffffffffffffffffffffffffff\n      and\n      0x0516911bcc3a0a7412a44601057c0a0a1ec628bde049a84284bc428866534488\n        /* \"contracts/polygon.sol\":1576:1585  msg.value */\n      callvalue\n        /* \"contracts/polygon.sol\":1557:1586  Repaid(msg.sender, msg.value) */\n      mload(0x40)\n      tag_98\n      swap2\n      swap1\n      tag_18\n      jump\t// in\n    tag_98:\n      mload(0x40)\n      dup1\n      swap2\n      sub\n      swap1\n      log2\n        /* \"contracts/polygon.sol\":1282:1593  function repayLoan() external payable {... */\n      jump\t// out\n        /* \"#utility.yul\":88:205   */\n    tag_100:\n        /* \"#utility.yul\":197:198   */\n      0x00\n        /* \"#utility.yul\":194:195   */\n      dup1\n        /* \"#utility.yul\":187:199   */\n      revert\n        /* \"#utility.yul\":334:460   */\n    tag_102:\n        /* \"#utility.yul\":371:378   */\n      0x00\n        /* \"#utility.yul\":411:453   */\n      0xffffffffffffffffffffffffffffffffffffffff\n        /* \"#utility.yul\":404:409   */\n      dup3\n        /* \"#utility.yul\":400:454   */\n      and\n        /* \"#utility.yul\":389:454   */\n      swap1\n      pop\n        /* \"#utility.yul\":334:460   */\n      swap2\n      swap1\n      pop\n      jump\t// out\n        /* \"#utility.yul\":466:562   */\n    tag_103:\n        /* \"#utility.yul\":503:510   */\n      0x00\n        /* \"#utility.yul\":532:556   */\n      tag_135\n        /* \"#utility.yul\":550:555   */\n      dup3\n        /* \"#utility.yul\":532:556   */\n      tag_102\n      jump\t// in\n    tag_135:\n        /* \"#utility.yul\":521:556   */\n      swap1\n      pop\n        /* \"#utility.yul\":466:562   */\n      swap2\n      swap1\n      pop\n      jump\t// out\n        /* \"#utility.yul\":568:690   */\n    tag_104:\n        /* \"#utility.yul\":641:665   */\n      tag_137\n        /* \"#utility.yul\":659:664   */\n      dup2\n        /* \"#utility.yul\":641:665   */\n      tag_103\n      jump\t// in\n    tag_137:\n        /* \"#utility.yul\":634:639   */\n      dup2\n        /* \"#utility.yul\":631:666   */\n      eq\n        /* \"#utility.yul\":621:684   */\n      tag_138\n      jumpi\n        /* \"#utility.yul\":680:681   */\n      0x00\n        /* \"#utility.yul\":677:678   */\n      dup1\n        /* \"#utility.yul\":670:682   */\n      revert\n        /* \"#utility.yul\":621:684   */\n    tag_138:\n        /* \"#utility.yul\":568:690   */\n      pop\n      jump\t// out\n        /* \"#utility.yul\":696:835   */\n    tag_105:\n        /* \"#utility.yul\":742:747   */\n      0x00\n        /* \"#utility.yul\":780:786   */\n      dup2\n        /* \"#utility.yul\":767:787   */\n      calldataload\n        /* \"#utility.yul\":758:787   */\n      swap1\n      pop\n        /* \"#utility.yul\":796:829   */\n      tag_140\n        /* \"#utility.yul\":823:828   */\n      dup2\n        /* \"#utility.yul\":796:829   */\n      tag_104\n      jump\t// in\n    tag_140:\n        /* \"#utility.yul\":696:835   */\n      swap3\n      swap2\n      pop\n      pop\n      jump\t// out\n        /* \"#utility.yul\":841:1170   */\n    tag_15:\n        /* \"#utility.yul\":900:906   */\n      0x00\n        /* \"#utility.yul\":949:951   */\n      0x20\n        /* \"#utility.yul\":937:946   */\n      dup3\n        /* \"#utility.yul\":928:935   */\n      dup5\n        /* \"#utility.yul\":924:947   */\n      sub\n        /* \"#utility.yul\":920:952   */\n      slt\n        /* \"#utility.yul\":917:1036   */\n      iszero\n      tag_142\n      jumpi\n        /* \"#utility.yul\":955:1034   */\n      tag_143\n      tag_100\n      jump\t// in\n    tag_143:\n        /* \"#utility.yul\":917:1036   */\n    tag_142:\n        /* \"#utility.yul\":1075:1076   */\n      0x00\n        /* \"#utility.yul\":1100:1153   */\n      tag_144\n        /* \"#utility.yul\":1145:1152   */\n      dup5\n        /* \"#utility.yul\":1136:1142   */\n      dup3\n        /* \"#utility.yul\":1125:1134   */\n      dup6\n        /* \"#utility.yul\":1121:1143   */\n      add\n        /* \"#utility.yul\":1100:1153   */\n      tag_105\n      jump\t// in\n    tag_144:\n        /* \"#utility.yul\":1090:1153   */\n      swap2\n      pop\n        /* \"#utility.yul\":1046:1163   */\n      pop\n        /* \"#utility.yul\":841:1170   */\n      swap3\n      swap2\n      pop\n      pop\n      jump\t// out\n        /* \"#utility.yul\":1176:1253   */\n    tag_106:\n        /* \"#utility.yul\":1213:1220   */\n      0x00\n        /* \"#utility.yul\":1242:1247   */\n      dup2\n        /* \"#utility.yul\":1231:1247   */\n      swap1\n      pop\n        /* \"#utility.yul\":1176:1253   */\n      swap2\n      swap1\n      pop\n      jump\t// out\n        /* \"#utility.yul\":1259:1377   */\n    tag_107:\n        /* \"#utility.yul\":1346:1370   */\n      tag_147\n        /* \"#utility.yul\":1364:1369   */\n      dup2\n        /* \"#utility.yul\":1346:1370   */\n      tag_106\n      jump\t// in\n    tag_147:\n        /* \"#utility.yul\":1341:1344   */\n      dup3\n        /* \"#utility.yul\":1334:1371   */\n      mstore\n        /* \"#utility.yul\":1259:1377   */\n      pop\n      pop\n      jump\t// out\n        /* \"#utility.yul\":1383:1605   */\n    tag_18:\n        /* \"#utility.yul\":1476:1480   */\n      0x00\n        /* \"#utility.yul\":1514:1516   */\n      0x20\n        /* \"#utility.yul\":1503:1512   */\n      dup3\n        /* \"#utility.yul\":1499:1517   */\n      add\n        /* \"#utility.yul\":1491:1517   */\n      swap1\n      pop\n        /* \"#utility.yul\":1527:1598   */\n      tag_149\n        /* \"#utility.yul\":1595:1596   */\n      0x00\n        /* \"#utility.yul\":1584:1593   */\n      dup4\n        /* \"#utility.yul\":1580:1597   */\n      add\n        /* \"#utility.yul\":1571:1577   */\n      dup5\n        /* \"#utility.yul\":1527:1598   */\n      tag_107\n      jump\t// in\n    tag_149:\n        /* \"#utility.yul\":1383:1605   */\n      swap3\n      swap2\n      pop\n      pop\n      jump\t// out\n        /* \"#utility.yul\":1611:1733   */\n    tag_108:\n        /* \"#utility.yul\":1684:1708   */\n      tag_151\n        /* \"#utility.yul\":1702:1707   */\n      dup2\n        /* \"#utility.yul\":1684:1708   */\n      tag_106\n      jump\t// in\n    tag_151:\n        /* \"#utility.yul\":1677:1682   */\n      dup2\n        /* \"#utility.yul\":1674:1709   */\n      eq\n        /* \"#utility.yul\":1664:1727   */\n      tag_152\n      jumpi\n        /* \"#utility.yul\":1723:1724   */\n      0x00\n        /* \"#utility.yul\":1720:1721   */\n      dup1\n        /* \"#utility.yul\":1713:1725   */\n      revert\n        /* \"#utility.yul\":1664:1727   */\n    tag_152:\n        /* \"#utility.yul\":1611:1733   */\n      pop\n      jump\t// out\n        /* \"#utility.yul\":1739:1878   */\n    tag_109:\n        /* \"#utility.yul\":1785:1790   */\n      0x00\n        /* \"#utility.yul\":1823:1829   */\n      dup2\n        /* \"#utility.yul\":1810:1830   */\n      calldataload\n        /* \"#utility.yul\":1801:1830   */\n      swap1\n      pop\n        /* \"#utility.yul\":1839:1872   */\n      tag_154\n        /* \"#utility.yul\":1866:1871   */\n      dup2\n        /* \"#utility.yul\":1839:1872   */\n      tag_108\n      jump\t// in\n    tag_154:\n        /* \"#utility.yul\":1739:1878   */\n      swap3\n      swap2\n      pop\n      pop\n      jump\t// out\n        /* \"#utility.yul\":1884:2213   */\n    tag_26:\n        /* \"#utility.yul\":1943:1949   */\n      0x00\n        /* \"#utility.yul\":1992:1994   */\n      0x20\n        /* \"#utility.yul\":1980:1989   */\n      dup3\n        /* \"#utility.yul\":1971:1978   */\n      dup5\n        /* \"#utility.yul\":1967:1990   */\n      sub\n        /* \"#utility.yul\":1963:1995   */\n      slt\n        /* \"#utility.yul\":1960:2079   */\n      iszero\n      tag_156\n      jumpi\n        /* \"#utility.yul\":1998:2077   */\n      tag_157\n      tag_100\n      jump\t// in\n    tag_157:\n        /* \"#utility.yul\":1960:2079   */\n    tag_156:\n        /* \"#utility.yul\":2118:2119   */\n      0x00\n        /* \"#utility.yul\":2143:2196   */\n      tag_158\n        /* \"#utility.yul\":2188:2195   */\n      dup5\n        /* \"#utility.yul\":2179:2185   */\n      dup3\n        /* \"#utility.yul\":2168:2177   */\n      dup6\n        /* \"#utility.yul\":2164:2186   */\n      add\n        /* \"#utility.yul\":2143:2196   */\n      tag_109\n      jump\t// in\n    tag_158:\n        /* \"#utility.yul\":2133:2196   */\n      swap2\n      pop\n        /* \"#utility.yul\":2089:2206   */\n      pop\n        /* \"#utility.yul\":1884:2213   */\n      swap3\n      swap2\n      pop\n      pop\n      jump\t// out\n        /* \"#utility.yul\":2219:2388   */\n    tag_110:\n        /* \"#utility.yul\":2303:2314   */\n      0x00\n        /* \"#utility.yul\":2337:2343   */\n      dup3\n        /* \"#utility.yul\":2332:2335   */\n      dup3\n        /* \"#utility.yul\":2325:2344   */\n      mstore\n        /* \"#utility.yul\":2377:2381   */\n      0x20\n        /* \"#utility.yul\":2372:2375   */\n      dup3\n        /* \"#utility.yul\":2368:2382   */\n      add\n        /* \"#utility.yul\":2353:2382   */\n      swap1\n      pop\n        /* \"#utility.yul\":2219:2388   */\n      swap3\n      swap2\n      pop\n      pop\n      jump\t// out\n        /* \"#utility.yul\":2394:2619   */\n    tag_111:\n        /* \"#utility.yul\":2534:2568   */\n      0x576974686472617720616d6f756e74206d757374206265206772656174657220\n        /* \"#utility.yul\":2530:2531   */\n      0x00\n        /* \"#utility.yul\":2522:2528   */\n      dup3\n        /* \"#utility.yul\":2518:2532   */\n      add\n        /* \"#utility.yul\":2511:2569   */\n      mstore\n        /* \"#utility.yul\":2603:2611   */\n      0x7468616e20300000000000000000000000000000000000000000000000000000\n        /* \"#utility.yul\":2598:2600   */\n      0x20\n        /* \"#utility.yul\":2590:2596   */\n      dup3\n        /* \"#utility.yul\":2586:2601   */\n      add\n        /* \"#utility.yul\":2579:2612   */\n      mstore\n        /* \"#utility.yul\":2394:2619   */\n      pop\n      jump\t// out\n        /* \"#utility.yul\":2625:2991   */\n    tag_112:\n        /* \"#utility.yul\":2767:2770   */\n      0x00\n        /* \"#utility.yul\":2788:2855   */\n      tag_162\n        /* \"#utility.yul\":2852:2854   */\n      0x26\n        /* \"#utility.yul\":2847:2850   */\n      dup4\n        /* \"#utility.yul\":2788:2855   */\n      tag_110\n      jump\t// in\n    tag_162:\n        /* \"#utility.yul\":2781:2855   */\n      swap2\n      pop\n        /* \"#utility.yul\":2864:2957   */\n      tag_163\n        /* \"#utility.yul\":2953:2956   */\n      dup3\n        /* \"#utility.yul\":2864:2957   */\n      tag_111\n      jump\t// in\n    tag_163:\n        /* \"#utility.yul\":2982:2984   */\n      0x40\n        /* \"#utility.yul\":2977:2980   */\n      dup3\n        /* \"#utility.yul\":2973:2985   */\n      add\n        /* \"#utility.yul\":2966:2985   */\n      swap1\n      pop\n        /* \"#utility.yul\":2625:2991   */\n      swap2\n      swap1\n      pop\n      jump\t// out\n        /* \"#utility.yul\":2997:3416   */\n    tag_53:\n        /* \"#utility.yul\":3163:3167   */\n      0x00\n        /* \"#utility.yul\":3201:3203   */\n      0x20\n        /* \"#utility.yul\":3190:3199   */\n      dup3\n        /* \"#utility.yul\":3186:3204   */\n      add\n        /* \"#utility.yul\":3178:3204   */\n      swap1\n      pop\n        /* \"#utility.yul\":3250:3259   */\n      dup2\n        /* \"#utility.yul\":3244:3248   */\n      dup2\n        /* \"#utility.yul\":3240:3260   */\n      sub\n        /* \"#utility.yul\":3236:3237   */\n      0x00\n        /* \"#utility.yul\":3225:3234   */\n      dup4\n        /* \"#utility.yul\":3221:3238   */\n      add\n        /* \"#utility.yul\":3214:3261   */\n      mstore\n        /* \"#utility.yul\":3278:3409   */\n      tag_165\n        /* \"#utility.yul\":3404:3408   */\n      dup2\n        /* \"#utility.yul\":3278:3409   */\n      tag_112\n      jump\t// in\n    tag_165:\n        /* \"#utility.yul\":3270:3409   */\n      swap1\n      pop\n        /* \"#utility.yul\":2997:3416   */\n      swap2\n      swap1\n      pop\n      jump\t// out\n        /* \"#utility.yul\":3422:3657   */\n    tag_113:\n        /* \"#utility.yul\":3562:3596   */\n      0x43616e6e6f7420776974686472617720636f6c6c61746572616c207769746820\n        /* \"#utility.yul\":3558:3559   */\n      0x00\n        /* \"#utility.yul\":3550:3556   */\n      dup3\n        /* \"#utility.yul\":3546:3560   */\n      add\n        /* \"#utility.yul\":3539:3597   */\n      mstore\n        /* \"#utility.yul\":3631:3649   */\n      0x6f75747374616e64696e67206c6f616e00000000000000000000000000000000\n        /* \"#utility.yul\":3626:3628   */\n      0x20\n        /* \"#utility.yul\":3618:3624   */\n      dup3\n        /* \"#utility.yul\":3614:3629   */\n      add\n        /* \"#utility.yul\":3607:3650   */\n      mstore\n        /* \"#utility.yul\":3422:3657   */\n      pop\n      jump\t// out\n        /* \"#utility.yul\":3663:4029   */\n    tag_114:\n        /* \"#utility.yul\":3805:3808   */\n      0x00\n        /* \"#utility.yul\":3826:3893   */\n      tag_168\n        /* \"#utility.yul\":3890:3892   */\n      0x30\n        /* \"#utility.yul\":3885:3888   */\n      dup4\n        /* \"#utility.yul\":3826:3893   */\n      tag_110\n      jump\t// in\n    tag_168:\n        /* \"#utility.yul\":3819:3893   */\n      swap2\n      pop\n        /* \"#utility.yul\":3902:3995   */\n      tag_169\n        /* \"#utility.yul\":3991:3994   */\n      dup3\n        /* \"#utility.yul\":3902:3995   */\n      tag_113\n      jump\t// in\n    tag_169:\n        /* \"#utility.yul\":4020:4022   */\n      0x40\n        /* \"#utility.yul\":4015:4018   */\n      dup3\n        /* \"#utility.yul\":4011:4023   */\n      add\n        /* \"#utility.yul\":4004:4023   */\n      swap1\n      pop\n        /* \"#utility.yul\":3663:4029   */\n      swap2\n      swap1\n      pop\n      jump\t// out\n        /* \"#utility.yul\":4035:4454   */\n    tag_56:\n        /* \"#utility.yul\":4201:4205   */\n      0x00\n        /* \"#utility.yul\":4239:4241   */\n      0x20\n        /* \"#utility.yul\":4228:4237   */\n      dup3\n        /* \"#utility.yul\":4224:4242   */\n      add\n        /* \"#utility.yul\":4216:4242   */\n      swap1\n      pop\n        /* \"#utility.yul\":4288:4297   */\n      dup2\n        /* \"#utility.yul\":4282:4286   */\n      dup2\n        /* \"#utility.yul\":4278:4298   */\n      sub\n        /* \"#utility.yul\":4274:4275   */\n      0x00\n        /* \"#utility.yul\":4263:4272   */\n      dup4\n        /* \"#utility.yul\":4259:4276   */\n      add\n        /* \"#utility.yul\":4252:4299   */\n      mstore\n        /* \"#utility.yul\":4316:4447   */\n      tag_171\n        /* \"#utility.yul\":4442:4446   */\n      dup2\n        /* \"#utility.yul\":4316:4447   */\n      tag_114\n      jump\t// in\n    tag_171:\n        /* \"#utility.yul\":4308:4447   */\n      swap1\n      pop\n        /* \"#utility.yul\":4035:4454   */\n      swap2\n      swap1\n      pop\n      jump\t// out\n        /* \"#utility.yul\":4460:4689   */\n    tag_115:\n        /* \"#utility.yul\":4600:4634   */\n      0x576974686472617720616d6f756e74206578636565647320636f6c6c61746572\n        /* \"#utility.yul\":4596:4597   */\n      0x00\n        /* \"#utility.yul\":4588:4594   */\n      dup3\n        /* \"#utility.yul\":4584:4598   */\n      add\n        /* \"#utility.yul\":4577:4635   */\n      mstore\n        /* \"#utility.yul\":4669:4681   */\n      0x616c2062616c616e636500000000000000000000000000000000000000000000\n        /* \"#utility.yul\":4664:4666   */\n      0x20\n        /* \"#utility.yul\":4656:4662   */\n      dup3\n        /* \"#utility.yul\":4652:4667   */\n      add\n        /* \"#utility.yul\":4645:4682   */\n      mstore\n        /* \"#utility.yul\":4460:4689   */\n      pop\n      jump\t// out\n        /* \"#utility.yul\":4695:5061   */\n    tag_116:\n        /* \"#utility.yul\":4837:4840   */\n      0x00\n        /* \"#utility.yul\":4858:4925   */\n      tag_174\n        /* \"#utility.yul\":4922:4924   */\n      0x2a\n        /* \"#utility.yul\":4917:4920   */\n      dup4\n        /* \"#utility.yul\":4858:4925   */\n      tag_110\n      jump\t// in\n    tag_174:\n        /* \"#utility.yul\":4851:4925   */\n      swap2\n      pop\n        /* \"#utility.yul\":4934:5027   */\n      tag_175\n        /* \"#utility.yul\":5023:5026   */\n      dup3\n        /* \"#utility.yul\":4934:5027   */\n      tag_115\n      jump\t// in\n    tag_175:\n        /* \"#utility.yul\":5052:5054   */\n      0x40\n        /* \"#utility.yul\":5047:5050   */\n      dup3\n        /* \"#utility.yul\":5043:5055   */\n      add\n        /* \"#utility.yul\":5036:5055   */\n      swap1\n      pop\n        /* \"#utility.yul\":4695:5061   */\n      swap2\n      swap1\n      pop\n      jump\t// out\n        /* \"#utility.yul\":5067:5486   */\n    tag_59:\n        /* \"#utility.yul\":5233:5237   */\n      0x00\n        /* \"#utility.yul\":5271:5273   */\n      0x20\n        /* \"#utility.yul\":5260:5269   */\n      dup3\n        /* \"#utility.yul\":5256:5274   */\n      add\n        /* \"#utility.yul\":5248:5274   */\n      swap1\n      pop\n        /* \"#utility.yul\":5320:5329   */\n      dup2\n        /* \"#utility.yul\":5314:5318   */\n      dup2\n        /* \"#utility.yul\":5310:5330   */\n      sub\n        /* \"#utility.yul\":5306:5307   */\n      0x00\n        /* \"#utility.yul\":5295:5304   */\n      dup4\n        /* \"#utility.yul\":5291:5308   */\n      add\n        /* \"#utility.yul\":5284:5331   */\n      mstore\n        /* \"#utility.yul\":5348:5479   */\n      tag_177\n        /* \"#utility.yul\":5474:5478   */\n      dup2\n        /* \"#utility.yul\":5348:5479   */\n      tag_116\n      jump\t// in\n    tag_177:\n        /* \"#utility.yul\":5340:5479   */\n      swap1\n      pop\n        /* \"#utility.yul\":5067:5486   */\n      swap2\n      swap1\n      pop\n      jump\t// out\n        /* \"#utility.yul\":5492:5672   */\n    tag_117:\n        /* \"#utility.yul\":5540:5617   */\n      0x4e487b7100000000000000000000000000000000000000000000000000000000\n        /* \"#utility.yul\":5537:5538   */\n      0x00\n        /* \"#utility.yul\":5530:5618   */\n      mstore\n        /* \"#utility.yul\":5637:5641   */\n      0x11\n        /* \"#utility.yul\":5634:5635   */\n      0x04\n        /* \"#utility.yul\":5627:5642   */\n      mstore\n        /* \"#utility.yul\":5661:5665   */\n      0x24\n        /* \"#utility.yul\":5658:5659   */\n      0x00\n        /* \"#utility.yul\":5651:5666   */\n      revert\n        /* \"#utility.yul\":5678:5872   */\n    tag_61:\n        /* \"#utility.yul\":5718:5722   */\n      0x00\n        /* \"#utility.yul\":5738:5758   */\n      tag_180\n        /* \"#utility.yul\":5756:5757   */\n      dup3\n        /* \"#utility.yul\":5738:5758   */\n      tag_106\n      jump\t// in\n    tag_180:\n        /* \"#utility.yul\":5733:5758   */\n      swap2\n      pop\n        /* \"#utility.yul\":5772:5792   */\n      tag_181\n        /* \"#utility.yul\":5790:5791   */\n      dup4\n        /* \"#utility.yul\":5772:5792   */\n      tag_106\n      jump\t// in\n    tag_181:\n        /* \"#utility.yul\":5767:5792   */\n      swap3\n      pop\n        /* \"#utility.yul\":5816:5817   */\n      dup3\n        /* \"#utility.yul\":5813:5814   */\n      dup3\n        /* \"#utility.yul\":5809:5818   */\n      sub\n        /* \"#utility.yul\":5801:5818   */\n      swap1\n      pop\n        /* \"#utility.yul\":5840:5841   */\n      dup2\n        /* \"#utility.yul\":5834:5838   */\n      dup2\n        /* \"#utility.yul\":5831:5842   */\n      gt\n        /* \"#utility.yul\":5828:5865   */\n      iszero\n      tag_182\n      jumpi\n        /* \"#utility.yul\":5845:5863   */\n      tag_183\n      tag_117\n      jump\t// in\n    tag_183:\n        /* \"#utility.yul\":5828:5865   */\n    tag_182:\n        /* \"#utility.yul\":5678:5872   */\n      swap3\n      swap2\n      pop\n      pop\n      jump\t// out\n        /* \"#utility.yul\":5878:6056   */\n    tag_118:\n        /* \"#utility.yul\":6018:6048   */\n      0x4d757374206465706f73697420736f6d6520636f6c6c61746572616c00000000\n        /* \"#utility.yul\":6014:6015   */\n      0x00\n        /* \"#utility.yul\":6006:6012   */\n      dup3\n        /* \"#utility.yul\":6002:6016   */\n      add\n        /* \"#utility.yul\":5995:6049   */\n      mstore\n        /* \"#utility.yul\":5878:6056   */\n      pop\n      jump\t// out\n        /* \"#utility.yul\":6062:6428   */\n    tag_119:\n        /* \"#utility.yul\":6204:6207   */\n      0x00\n        /* \"#utility.yul\":6225:6292   */\n      tag_186\n        /* \"#utility.yul\":6289:6291   */\n      0x1c\n        /* \"#utility.yul\":6284:6287   */\n      dup4\n        /* \"#utility.yul\":6225:6292   */\n      tag_110\n      jump\t// in\n    tag_186:\n        /* \"#utility.yul\":6218:6292   */\n      swap2\n      pop\n        /* \"#utility.yul\":6301:6394   */\n      tag_187\n        /* \"#utility.yul\":6390:6393   */\n      dup3\n        /* \"#utility.yul\":6301:6394   */\n      tag_118\n      jump\t// in\n    tag_187:\n        /* \"#utility.yul\":6419:6421   */\n      0x20\n        /* \"#utility.yul\":6414:6417   */\n      dup3\n        /* \"#utility.yul\":6410:6422   */\n      add\n        /* \"#utility.yul\":6403:6422   */\n      swap1\n      pop\n        /* \"#utility.yul\":6062:6428   */\n      swap2\n      swap1\n      pop\n      jump\t// out\n        /* \"#utility.yul\":6434:6853   */\n    tag_68:\n        /* \"#utility.yul\":6600:6604   */\n      0x00\n        /* \"#utility.yul\":6638:6640   */\n      0x20\n        /* \"#utility.yul\":6627:6636   */\n      dup3\n        /* \"#utility.yul\":6623:6641   */\n      add\n        /* \"#utility.yul\":6615:6641   */\n      swap1\n      pop\n        /* \"#utility.yul\":6687:6696   */\n      dup2\n        /* \"#utility.yul\":6681:6685   */\n      dup2\n        /* \"#utility.yul\":6677:6697   */\n      sub\n        /* \"#utility.yul\":6673:6674   */\n      0x00\n        /* \"#utility.yul\":6662:6671   */\n      dup4\n        /* \"#utility.yul\":6658:6675   */\n      add\n        /* \"#utility.yul\":6651:6698   */\n      mstore\n        /* \"#utility.yul\":6715:6846   */\n      tag_189\n        /* \"#utility.yul\":6841:6845   */\n      dup2\n        /* \"#utility.yul\":6715:6846   */\n      tag_119\n      jump\t// in\n    tag_189:\n        /* \"#utility.yul\":6707:6846   */\n      swap1\n      pop\n        /* \"#utility.yul\":6434:6853   */\n      swap2\n      swap1\n      pop\n      jump\t// out\n        /* \"#utility.yul\":6859:7050   */\n    tag_70:\n        /* \"#utility.yul\":6899:6902   */\n      0x00\n        /* \"#utility.yul\":6918:6938   */\n      tag_191\n        /* \"#utility.yul\":6936:6937   */\n      dup3\n        /* \"#utility.yul\":6918:6938   */\n      tag_106\n      jump\t// in\n    tag_191:\n        /* \"#utility.yul\":6913:6938   */\n      swap2\n      pop\n        /* \"#utility.yul\":6952:6972   */\n      tag_192\n        /* \"#utility.yul\":6970:6971   */\n      dup4\n        /* \"#utility.yul\":6952:6972   */\n      tag_106\n      jump\t// in\n    tag_192:\n        /* \"#utility.yul\":6947:6972   */\n      swap3\n      pop\n        /* \"#utility.yul\":6995:6996   */\n      dup3\n        /* \"#utility.yul\":6992:6993   */\n      dup3\n        /* \"#utility.yul\":6988:6997   */\n      add\n        /* \"#utility.yul\":6981:6997   */\n      swap1\n      pop\n        /* \"#utility.yul\":7016:7019   */\n      dup1\n        /* \"#utility.yul\":7013:7014   */\n      dup3\n        /* \"#utility.yul\":7010:7020   */\n      gt\n        /* \"#utility.yul\":7007:7043   */\n      iszero\n      tag_193\n      jumpi\n        /* \"#utility.yul\":7023:7041   */\n      tag_194\n      tag_117\n      jump\t// in\n    tag_194:\n        /* \"#utility.yul\":7007:7043   */\n    tag_193:\n        /* \"#utility.yul\":6859:7050   */\n      swap3\n      swap2\n      pop\n      pop\n      jump\t// out\n        /* \"#utility.yul\":7056:7466   */\n    tag_74:\n        /* \"#utility.yul\":7096:7103   */\n      0x00\n        /* \"#utility.yul\":7119:7139   */\n      tag_196\n        /* \"#utility.yul\":7137:7138   */\n      dup3\n        /* \"#utility.yul\":7119:7139   */\n      tag_106\n      jump\t// in\n    tag_196:\n        /* \"#utility.yul\":7114:7139   */\n      swap2\n      pop\n        /* \"#utility.yul\":7153:7173   */\n      tag_197\n        /* \"#utility.yul\":7171:7172   */\n      dup4\n        /* \"#utility.yul\":7153:7173   */\n      tag_106\n      jump\t// in\n    tag_197:\n        /* \"#utility.yul\":7148:7173   */\n      swap3\n      pop\n        /* \"#utility.yul\":7208:7209   */\n      dup3\n        /* \"#utility.yul\":7205:7206   */\n      dup3\n        /* \"#utility.yul\":7201:7210   */\n      mul\n        /* \"#utility.yul\":7230:7260   */\n      tag_198\n        /* \"#utility.yul\":7248:7259   */\n      dup2\n        /* \"#utility.yul\":7230:7260   */\n      tag_106\n      jump\t// in\n    tag_198:\n        /* \"#utility.yul\":7219:7260   */\n      swap2\n      pop\n        /* \"#utility.yul\":7409:7410   */\n      dup3\n        /* \"#utility.yul\":7400:7407   */\n      dup3\n        /* \"#utility.yul\":7396:7411   */\n      div\n        /* \"#utility.yul\":7393:7394   */\n      dup5\n        /* \"#utility.yul\":7390:7412   */\n      eq\n        /* \"#utility.yul\":7370:7371   */\n      dup4\n        /* \"#utility.yul\":7363:7372   */\n      iszero\n        /* \"#utility.yul\":7343:7426   */\n      or\n        /* \"#utility.yul\":7320:7459   */\n      tag_199\n      jumpi\n        /* \"#utility.yul\":7439:7457   */\n      tag_200\n      tag_117\n      jump\t// in\n    tag_200:\n        /* \"#utility.yul\":7320:7459   */\n    tag_199:\n        /* \"#utility.yul\":7104:7466   */\n      pop\n        /* \"#utility.yul\":7056:7466   */\n      swap3\n      swap2\n      pop\n      pop\n      jump\t// out\n        /* \"#utility.yul\":7472:7652   */\n    tag_120:\n        /* \"#utility.yul\":7520:7597   */\n      0x4e487b7100000000000000000000000000000000000000000000000000000000\n        /* \"#utility.yul\":7517:7518   */\n      0x00\n        /* \"#utility.yul\":7510:7598   */\n      mstore\n        /* \"#utility.yul\":7617:7621   */\n      0x12\n        /* \"#utility.yul\":7614:7615   */\n      0x04\n        /* \"#utility.yul\":7607:7622   */\n      mstore\n        /* \"#utility.yul\":7641:7645   */\n      0x24\n        /* \"#utility.yul\":7638:7639   */\n      0x00\n        /* \"#utility.yul\":7631:7646   */\n      revert\n        /* \"#utility.yul\":7658:7843   */\n    tag_76:\n        /* \"#utility.yul\":7698:7699   */\n      0x00\n        /* \"#utility.yul\":7715:7735   */\n      tag_203\n        /* \"#utility.yul\":7733:7734   */\n      dup3\n        /* \"#utility.yul\":7715:7735   */\n      tag_106\n      jump\t// in\n    tag_203:\n        /* \"#utility.yul\":7710:7735   */\n      swap2\n      pop\n        /* \"#utility.yul\":7749:7769   */\n      tag_204\n        /* \"#utility.yul\":7767:7768   */\n      dup4\n        /* \"#utility.yul\":7749:7769   */\n      tag_106\n      jump\t// in\n    tag_204:\n        /* \"#utility.yul\":7744:7769   */\n      swap3\n      pop\n        /* \"#utility.yul\":7788:7789   */\n      dup3\n        /* \"#utility.yul\":7778:7813   */\n      tag_205\n      jumpi\n        /* \"#utility.yul\":7793:7811   */\n      tag_206\n      tag_120\n      jump\t// in\n    tag_206:\n        /* \"#utility.yul\":7778:7813   */\n    tag_205:\n        /* \"#utility.yul\":7835:7836   */\n      dup3\n        /* \"#utility.yul\":7832:7833   */\n      dup3\n        /* \"#utility.yul\":7828:7837   */\n      div\n        /* \"#utility.yul\":7823:7837   */\n      swap1\n      pop\n        /* \"#utility.yul\":7658:7843   */\n      swap3\n      swap2\n      pop\n      pop\n      jump\t// out\n        /* \"#utility.yul\":7849:8072   */\n    tag_121:\n        /* \"#utility.yul\":7989:8023   */\n      0x426f72726f7720616d6f756e74206d7573742062652067726561746572207468\n        /* \"#utility.yul\":7985:7986   */\n      0x00\n        /* \"#utility.yul\":7977:7983   */\n      dup3\n        /* \"#utility.yul\":7973:7987   */\n      add\n        /* \"#utility.yul\":7966:8024   */\n      mstore\n        /* \"#utility.yul\":8058:8064   */\n      0x616e203000000000000000000000000000000000000000000000000000000000\n        /* \"#utility.yul\":8053:8055   */\n      0x20\n        /* \"#utility.yul\":8045:8051   */\n      dup3\n        /* \"#utility.yul\":8041:8056   */\n      add\n        /* \"#utility.yul\":8034:8065   */\n      mstore\n        /* \"#utility.yul\":7849:8072   */\n      pop\n      jump\t// out\n        /* \"#utility.yul\":8078:8444   */\n    tag_122:\n        /* \"#utility.yul\":8220:8223   */\n      0x00\n        /* \"#utility.yul\":8241:8308   */\n      tag_209\n        /* \"#utility.yul\":8305:8307   */\n      0x24\n        /* \"#utility.yul\":8300:8303   */\n      dup4\n        /* \"#utility.yul\":8241:8308   */\n      tag_110\n      jump\t// in\n    tag_209:\n        /* \"#utility.yul\":8234:8308   */\n      swap2\n      pop\n        /* \"#utility.yul\":8317:8410   */\n      tag_210\n        /* \"#utility.yul\":8406:8409   */\n      dup3\n        /* \"#utility.yul\":8317:8410   */\n      tag_121\n      jump\t// in\n    tag_210:\n        /* \"#utility.yul\":8435:8437   */\n      0x40\n        /* \"#utility.yul\":8430:8433   */\n      dup3\n        /* \"#utility.yul\":8426:8438   */\n      add\n        /* \"#utility.yul\":8419:8438   */\n      swap1\n      pop\n        /* \"#utility.yul\":8078:8444   */\n      swap2\n      swap1\n      pop\n      jump\t// out\n        /* \"#utility.yul\":8450:8869   */\n    tag_82:\n        /* \"#utility.yul\":8616:8620   */\n      0x00\n        /* \"#utility.yul\":8654:8656   */\n      0x20\n        /* \"#utility.yul\":8643:8652   */\n      dup3\n        /* \"#utility.yul\":8639:8657   */\n      add\n        /* \"#utility.yul\":8631:8657   */\n      swap1\n      pop\n        /* \"#utility.yul\":8703:8712   */\n      dup2\n        /* \"#utility.yul\":8697:8701   */\n      dup2\n        /* \"#utility.yul\":8693:8713   */\n      sub\n        /* \"#utility.yul\":8689:8690   */\n      0x00\n        /* \"#utility.yul\":8678:8687   */\n      dup4\n        /* \"#utility.yul\":8674:8691   */\n      add\n        /* \"#utility.yul\":8667:8714   */\n      mstore\n        /* \"#utility.yul\":8731:8862   */\n      tag_212\n        /* \"#utility.yul\":8857:8861   */\n      dup2\n        /* \"#utility.yul\":8731:8862   */\n      tag_122\n      jump\t// in\n    tag_212:\n        /* \"#utility.yul\":8723:8862   */\n      swap1\n      pop\n        /* \"#utility.yul\":8450:8869   */\n      swap2\n      swap1\n      pop\n      jump\t// out\n        /* \"#utility.yul\":8875:9097   */\n    tag_123:\n        /* \"#utility.yul\":9015:9049   */\n      0x426f72726f7720616d6f756e74206578636565647320616c6c6f776564206c69\n        /* \"#utility.yul\":9011:9012   */\n      0x00\n        /* \"#utility.yul\":9003:9009   */\n      dup3\n        /* \"#utility.yul\":8999:9013   */\n      add\n        /* \"#utility.yul\":8992:9050   */\n      mstore\n        /* \"#utility.yul\":9084:9089   */\n      0x6d69740000000000000000000000000000000000000000000000000000000000\n        /* \"#utility.yul\":9079:9081   */\n      0x20\n        /* \"#utility.yul\":9071:9077   */\n      dup3\n        /* \"#utility.yul\":9067:9082   */\n      add\n        /* \"#utility.yul\":9060:9090   */\n      mstore\n        /* \"#utility.yul\":8875:9097   */\n      pop\n      jump\t// out\n        /* \"#utility.yul\":9103:9469   */\n    tag_124:\n        /* \"#utility.yul\":9245:9248   */\n      0x00\n        /* \"#utility.yul\":9266:9333   */\n      tag_215\n        /* \"#utility.yul\":9330:9332   */\n      0x23\n        /* \"#utility.yul\":9325:9328   */\n      dup4\n        /* \"#utility.yul\":9266:9333   */\n      tag_110\n      jump\t// in\n    tag_215:\n        /* \"#utility.yul\":9259:9333   */\n      swap2\n      pop\n        /* \"#utility.yul\":9342:9435   */\n      tag_216\n        /* \"#utility.yul\":9431:9434   */\n      dup3\n        /* \"#utility.yul\":9342:9435   */\n      tag_123\n      jump\t// in\n    tag_216:\n        /* \"#utility.yul\":9460:9462   */\n      0x40\n        /* \"#utility.yul\":9455:9458   */\n      dup3\n        /* \"#utility.yul\":9451:9463   */\n      add\n        /* \"#utility.yul\":9444:9463   */\n      swap1\n      pop\n        /* \"#utility.yul\":9103:9469   */\n      swap2\n      swap1\n      pop\n      jump\t// out\n        /* \"#utility.yul\":9475:9894   */\n    tag_85:\n        /* \"#utility.yul\":9641:9645   */\n      0x00\n        /* \"#utility.yul\":9679:9681   */\n      0x20\n        /* \"#utility.yul\":9668:9677   */\n      dup3\n        /* \"#utility.yul\":9664:9682   */\n      add\n        /* \"#utility.yul\":9656:9682   */\n      swap1\n      pop\n        /* \"#utility.yul\":9728:9737   */\n      dup2\n        /* \"#utility.yul\":9722:9726   */\n      dup2\n        /* \"#utility.yul\":9718:9738   */\n      sub\n        /* \"#utility.yul\":9714:9715   */\n      0x00\n        /* \"#utility.yul\":9703:9712   */\n      dup4\n        /* \"#utility.yul\":9699:9716   */\n      add\n        /* \"#utility.yul\":9692:9739   */\n      mstore\n        /* \"#utility.yul\":9756:9887   */\n      tag_218\n        /* \"#utility.yul\":9882:9886   */\n      dup2\n        /* \"#utility.yul\":9756:9887   */\n      tag_124\n      jump\t// in\n    tag_218:\n        /* \"#utility.yul\":9748:9887   */\n      swap1\n      pop\n        /* \"#utility.yul\":9475:9894   */\n      swap2\n      swap1\n      pop\n      jump\t// out\n        /* \"#utility.yul\":9900:10122   */\n    tag_125:\n        /* \"#utility.yul\":10040:10074   */\n      0x526570617920616d6f756e74206d757374206265206772656174657220746861\n        /* \"#utility.yul\":10036:10037   */\n      0x00\n        /* \"#utility.yul\":10028:10034   */\n      dup3\n        /* \"#utility.yul\":10024:10038   */\n      add\n        /* \"#utility.yul\":10017:10075   */\n      mstore\n        /* \"#utility.yul\":10109:10114   */\n      0x6e20300000000000000000000000000000000000000000000000000000000000\n        /* \"#utility.yul\":10104:10106   */\n      0x20\n        /* \"#utility.yul\":10096:10102   */\n      dup3\n        /* \"#utility.yul\":10092:10107   */\n      add\n        /* \"#utility.yul\":10085:10115   */\n      mstore\n        /* \"#utility.yul\":9900:10122   */\n      pop\n      jump\t// out\n        /* \"#utility.yul\":10128:10494   */\n    tag_126:\n        /* \"#utility.yul\":10270:10273   */\n      0x00\n        /* \"#utility.yul\":10291:10358   */\n      tag_221\n        /* \"#utility.yul\":10355:10357   */\n      0x23\n        /* \"#utility.yul\":10350:10353   */\n      dup4\n        /* \"#utility.yul\":10291:10358   */\n      tag_110\n      jump\t// in\n    tag_221:\n        /* \"#utility.yul\":10284:10358   */\n      swap2\n      pop\n        /* \"#utility.yul\":10367:10460   */\n      tag_222\n        /* \"#utility.yul\":10456:10459   */\n      dup3\n        /* \"#utility.yul\":10367:10460   */\n      tag_125\n      jump\t// in\n    tag_222:\n        /* \"#utility.yul\":10485:10487   */\n      0x40\n        /* \"#utility.yul\":10480:10483   */\n      dup3\n        /* \"#utility.yul\":10476:10488   */\n      add\n        /* \"#utility.yul\":10469:10488   */\n      swap1\n      pop\n        /* \"#utility.yul\":10128:10494   */\n      swap2\n      swap1\n      pop\n      jump\t// out\n        /* \"#utility.yul\":10500:10919   */\n    tag_93:\n        /* \"#utility.yul\":10666:10670   */\n      0x00\n        /* \"#utility.yul\":10704:10706   */\n      0x20\n        /* \"#utility.yul\":10693:10702   */\n      dup3\n        /* \"#utility.yul\":10689:10707   */\n      add\n        /* \"#utility.yul\":10681:10707   */\n      swap1\n      pop\n        /* \"#utility.yul\":10753:10762   */\n      dup2\n        /* \"#utility.yul\":10747:10751   */\n      dup2\n        /* \"#utility.yul\":10743:10763   */\n      sub\n        /* \"#utility.yul\":10739:10740   */\n      0x00\n        /* \"#utility.yul\":10728:10737   */\n      dup4\n        /* \"#utility.yul\":10724:10741   */\n      add\n        /* \"#utility.yul\":10717:10764   */\n      mstore\n        /* \"#utility.yul\":10781:10912   */\n      tag_224\n        /* \"#utility.yul\":10907:10911   */\n      dup2\n        /* \"#utility.yul\":10781:10912   */\n      tag_126\n      jump\t// in\n    tag_224:\n        /* \"#utility.yul\":10773:10912   */\n      swap1\n      pop\n        /* \"#utility.yul\":10500:10919   */\n      swap2\n      swap1\n      pop\n      jump\t// out\n        /* \"#utility.yul\":10925:11149   */\n    tag_127:\n        /* \"#utility.yul\":11065:11099   */\n      0x526570617920616d6f756e74206578636565647320626f72726f776564206261\n        /* \"#utility.yul\":11061:11062   */\n      0x00\n        /* \"#utility.yul\":11053:11059   */\n      dup3\n        /* \"#utility.yul\":11049:11063   */\n      add\n        /* \"#utility.yul\":11042:11100   */\n      mstore\n        /* \"#utility.yul\":11134:11141   */\n      0x6c616e6365000000000000000000000000000000000000000000000000000000\n        /* \"#utility.yul\":11129:11131   */\n      0x20\n        /* \"#utility.yul\":11121:11127   */\n      dup3\n        /* \"#utility.yul\":11117:11132   */\n      add\n        /* \"#utility.yul\":11110:11142   */\n      mstore\n        /* \"#utility.yul\":10925:11149   */\n      pop\n      jump\t// out\n        /* \"#utility.yul\":11155:11521   */\n    tag_128:\n        /* \"#utility.yul\":11297:11300   */\n      0x00\n        /* \"#utility.yul\":11318:11385   */\n      tag_227\n        /* \"#utility.yul\":11382:11384   */\n      0x25\n        /* \"#utility.yul\":11377:11380   */\n      dup4\n        /* \"#utility.yul\":11318:11385   */\n      tag_110\n      jump\t// in\n    tag_227:\n        /* \"#utility.yul\":11311:11385   */\n      swap2\n      pop\n        /* \"#utility.yul\":11394:11487   */\n      tag_228\n        /* \"#utility.yul\":11483:11486   */\n      dup3\n        /* \"#utility.yul\":11394:11487   */\n      tag_127\n      jump\t// in\n    tag_228:\n        /* \"#utility.yul\":11512:11514   */\n      0x40\n        /* \"#utility.yul\":11507:11510   */\n      dup3\n        /* \"#utility.yul\":11503:11515   */\n      add\n        /* \"#utility.yul\":11496:11515   */\n      swap1\n      pop\n        /* \"#utility.yul\":11155:11521   */\n      swap2\n      swap1\n      pop\n      jump\t// out\n        /* \"#utility.yul\":11527:11946   */\n    tag_96:\n        /* \"#utility.yul\":11693:11697   */\n      0x00\n        /* \"#utility.yul\":11731:11733   */\n      0x20\n        /* \"#utility.yul\":11720:11729   */\n      dup3\n        /* \"#utility.yul\":11716:11734   */\n      add\n        /* \"#utility.yul\":11708:11734   */\n      swap1\n      pop\n        /* \"#utility.yul\":11780:11789   */\n      dup2\n        /* \"#utility.yul\":11774:11778   */\n      dup2\n        /* \"#utility.yul\":11770:11790   */\n      sub\n        /* \"#utility.yul\":11766:11767   */\n      0x00\n        /* \"#utility.yul\":11755:11764   */\n      dup4\n        /* \"#utility.yul\":11751:11768   */\n      add\n        /* \"#utility.yul\":11744:11791   */\n      mstore\n        /* \"#utility.yul\":11808:11939   */\n      tag_230\n        /* \"#utility.yul\":11934:11938   */\n      dup2\n        /* \"#utility.yul\":11808:11939   */\n      tag_128\n      jump\t// in\n    tag_230:\n        /* \"#utility.yul\":11800:11939   */\n      swap1\n      pop\n        /* \"#utility.yul\":11527:11946   */\n      swap2\n      swap1\n      pop\n      jump\t// out\n\n    auxdata: 0xa2646970667358221220de6d60b92b3bd067504b30cc5751d1426b783b7a5936ad47e44968a533c34ef264736f6c634300081a0033\n}\n",
				"bytecode": {
					"linkReferences": {},
					"object": "6080604052348015600e575f80fd5b50610f8b8061001c5f395ff3fe608060405260043610610085575f3560e01c806395ec2c8a1161005857806395ec2c8a14610121578063a1bf28401461015d578063c5ebeaec14610199578063d9e69a05146101c1578063f966ade7146101eb57610085565b806302b28d4b146100895780632e0f2625146100c55780636112fe2e146100ef5780636f75814014610117575b5f80fd5b348015610094575f80fd5b506100af60048036038101906100aa9190610919565b6101f5565b6040516100bc919061095c565b60405180910390f35b3480156100d0575f80fd5b506100d961020a565b6040516100e6919061095c565b60405180910390f35b3480156100fa575f80fd5b506101156004803603810190610110919061099f565b61020f565b005b61011f610436565b005b34801561012c575f80fd5b5061014760048036038101906101429190610919565b61051a565b604051610154919061095c565b60405180910390f35b348015610168575f80fd5b50610183600480360381019061017e9190610919565b610577565b604051610190919061095c565b60405180910390f35b3480156101a4575f80fd5b506101bf60048036038101906101ba919061099f565b61058b565b005b3480156101cc575f80fd5b506101d5610751565b6040516101e2919061095c565b60405180910390f35b6101f3610756565b005b6001602052805f5260405f205f915090505481565b606481565b5f8111610251576040517f08c379a000000000000000000000000000000000000000000000000000000000815260040161024890610a4a565b60405180910390fd5b5f60015f3373ffffffffffffffffffffffffffffffffffffffff1673ffffffffffffffffffffffffffffffffffffffff1681526020019081526020015f2054146102d0576040517f08c379a00000000000000000000000000000000000000000000000000000000081526004016102c790610ad8565b60405180910390fd5b805f803373ffffffffffffffffffffffffffffffffffffffff1673ffffffffffffffffffffffffffffffffffffffff1681526020019081526020015f2054101561034f576040517f08c379a000000000000000000000000000000000000000000000000000000000815260040161034690610b66565b60405180910390fd5b805f803373ffffffffffffffffffffffffffffffffffffffff1673ffffffffffffffffffffffffffffffffffffffff1681526020019081526020015f205f82825461039a9190610bb1565b925050819055503373ffffffffffffffffffffffffffffffffffffffff166108fc8290811502906040515f60405180830381858888f193505050501580156103e4573d5f803e3d5ffd5b503373ffffffffffffffffffffffffffffffffffffffff167fc30fcfbcaac9e0deffa719714eaa82396ff506a0d0d0eebe170830177288715d8260405161042b919061095c565b60405180910390a250565b5f3411610478576040517f08c379a000000000000000000000000000000000000000000000000000000000815260040161046f90610c2e565b60405180910390fd5b345f803373ffffffffffffffffffffffffffffffffffffffff1673ffffffffffffffffffffffffffffffffffffffff1681526020019081526020015f205f8282546104c39190610c4c565b925050819055503373ffffffffffffffffffffffffffffffffffffffff167f2da466a7b24304f47e87fa2e1e5a81b9831ce54fec19055ce277ca2f39ba42c434604051610510919061095c565b60405180910390a2565b5f609660645f808573ffffffffffffffffffffffffffffffffffffffff1673ffffffffffffffffffffffffffffffffffffffff1681526020019081526020015f20546105669190610c7f565b6105709190610ced565b9050919050565b5f602052805f5260405f205f915090505481565b5f609660645f803373ffffffffffffffffffffffffffffffffffffffff1673ffffffffffffffffffffffffffffffffffffffff1681526020019081526020015f20546105d79190610c7f565b6105e19190610ced565b90505f8211610625576040517f08c379a000000000000000000000000000000000000000000000000000000000815260040161061c90610d8d565b60405180910390fd5b80821115610668576040517f08c379a000000000000000000000000000000000000000000000000000000000815260040161065f90610e1b565b60405180910390fd5b8160015f3373ffffffffffffffffffffffffffffffffffffffff1673ffffffffffffffffffffffffffffffffffffffff1681526020019081526020015f205f8282546106b49190610c4c565b925050819055503373ffffffffffffffffffffffffffffffffffffffff166108fc8390811502906040515f60405180830381858888f193505050501580156106fe573d5f803e3d5ffd5b503373ffffffffffffffffffffffffffffffffffffffff167fac59582e5396aca512fa873a2047e7f4c80f8f55d4a06cb34a78a0187f62719f83604051610745919061095c565b60405180910390a25050565b609681565b5f3411610798576040517f08c379a000000000000000000000000000000000000000000000000000000000815260040161078f90610ea9565b60405180910390fd5b3460015f3373ffffffffffffffffffffffffffffffffffffffff1673ffffffffffffffffffffffffffffffffffffffff1681526020019081526020015f20541015610818576040517f08c379a000000000000000000000000000000000000000000000000000000000815260040161080f90610f37565b60405180910390fd5b3460015f3373ffffffffffffffffffffffffffffffffffffffff1673ffffffffffffffffffffffffffffffffffffffff1681526020019081526020015f205f8282546108649190610bb1565b925050819055503373ffffffffffffffffffffffffffffffffffffffff167f0516911bcc3a0a7412a44601057c0a0a1ec628bde049a84284bc428866534488346040516108b1919061095c565b60405180910390a2565b5f80fd5b5f73ffffffffffffffffffffffffffffffffffffffff82169050919050565b5f6108e8826108bf565b9050919050565b6108f8816108de565b8114610902575f80fd5b50565b5f81359050610913816108ef565b92915050565b5f6020828403121561092e5761092d6108bb565b5b5f61093b84828501610905565b91505092915050565b5f819050919050565b61095681610944565b82525050565b5f60208201905061096f5f83018461094d565b92915050565b61097e81610944565b8114610988575f80fd5b50565b5f8135905061099981610975565b92915050565b5f602082840312156109b4576109b36108bb565b5b5f6109c18482850161098b565b91505092915050565b5f82825260208201905092915050565b7f576974686472617720616d6f756e74206d7573742062652067726561746572205f8201527f7468616e20300000000000000000000000000000000000000000000000000000602082015250565b5f610a346026836109ca565b9150610a3f826109da565b604082019050919050565b5f6020820190508181035f830152610a6181610a28565b9050919050565b7f43616e6e6f7420776974686472617720636f6c6c61746572616c2077697468205f8201527f6f75747374616e64696e67206c6f616e00000000000000000000000000000000602082015250565b5f610ac26030836109ca565b9150610acd82610a68565b604082019050919050565b5f6020820190508181035f830152610aef81610ab6565b9050919050565b7f576974686472617720616d6f756e74206578636565647320636f6c6c617465725f8201527f616c2062616c616e636500000000000000000000000000000000000000000000602082015250565b5f610b50602a836109ca565b9150610b5b82610af6565b604082019050919050565b5f6020820190508181035f830152610b7d81610b44565b9050919050565b7f4e487b71000000000000000000000000000000000000000000000000000000005f52601160045260245ffd5b5f610bbb82610944565b9150610bc683610944565b9250828203905081811115610bde57610bdd610b84565b5b92915050565b7f4d757374206465706f73697420736f6d6520636f6c6c61746572616c000000005f82015250565b5f610c18601c836109ca565b9150610c2382610be4565b602082019050919050565b5f6020820190508181035f830152610c4581610c0c565b9050919050565b5f610c5682610944565b9150610c6183610944565b9250828201905080821115610c7957610c78610b84565b5b92915050565b5f610c8982610944565b9150610c9483610944565b9250828202610ca281610944565b91508282048414831517610cb957610cb8610b84565b5b5092915050565b7f4e487b71000000000000000000000000000000000000000000000000000000005f52601260045260245ffd5b5f610cf782610944565b9150610d0283610944565b925082610d1257610d11610cc0565b5b828204905092915050565b7f426f72726f7720616d6f756e74206d75737420626520677265617465722074685f8201527f616e203000000000000000000000000000000000000000000000000000000000602082015250565b5f610d776024836109ca565b9150610d8282610d1d565b604082019050919050565b5f6020820190508181035f830152610da481610d6b565b9050919050565b7f426f72726f7720616d6f756e74206578636565647320616c6c6f776564206c695f8201527f6d69740000000000000000000000000000000000000000000000000000000000602082015250565b5f610e056023836109ca565b9150610e1082610dab565b604082019050919050565b5f6020820190508181035f830152610e3281610df9565b9050919050565b7f526570617920616d6f756e74206d7573742062652067726561746572207468615f8201527f6e20300000000000000000000000000000000000000000000000000000000000602082015250565b5f610e936023836109ca565b9150610e9e82610e39565b604082019050919050565b5f6020820190508181035f830152610ec081610e87565b9050919050565b7f526570617920616d6f756e74206578636565647320626f72726f7765642062615f8201527f6c616e6365000000000000000000000000000000000000000000000000000000602082015250565b5f610f216025836109ca565b9150610f2c82610ec7565b604082019050919050565b5f6020820190508181035f830152610f4e81610f15565b905091905056fea2646970667358221220de6d60b92b3bd067504b30cc5751d1426b783b7a5936ad47e44968a533c34ef264736f6c634300081a0033",
					"opcodes": "PUSH1 0x80 PUSH1 0x40 MSTORE CALLVALUE DUP1 ISZERO PUSH1 0xE JUMPI PUSH0 DUP1 REVERT JUMPDEST POP PUSH2 0xF8B DUP1 PUSH2 0x1C PUSH0 CODECOPY PUSH0 RETURN INVALID PUSH1 0x80 PUSH1 0x40 MSTORE PUSH1 0x4 CALLDATASIZE LT PUSH2 0x85 JUMPI PUSH0 CALLDATALOAD PUSH1 0xE0 SHR DUP1 PUSH4 0x95EC2C8A GT PUSH2 0x58 JUMPI DUP1 PUSH4 0x95EC2C8A EQ PUSH2 0x121 JUMPI DUP1 PUSH4 0xA1BF2840 EQ PUSH2 0x15D JUMPI DUP1 PUSH4 0xC5EBEAEC EQ PUSH2 0x199 JUMPI DUP1 PUSH4 0xD9E69A05 EQ PUSH2 0x1C1 JUMPI DUP1 PUSH4 0xF966ADE7 EQ PUSH2 0x1EB JUMPI PUSH2 0x85 JUMP JUMPDEST DUP1 PUSH4 0x2B28D4B EQ PUSH2 0x89 JUMPI DUP1 PUSH4 0x2E0F2625 EQ PUSH2 0xC5 JUMPI DUP1 PUSH4 0x6112FE2E EQ PUSH2 0xEF JUMPI DUP1 PUSH4 0x6F758140 EQ PUSH2 0x117 JUMPI JUMPDEST PUSH0 DUP1 REVERT JUMPDEST CALLVALUE DUP1 ISZERO PUSH2 0x94 JUMPI PUSH0 DUP1 REVERT JUMPDEST POP PUSH2 0xAF PUSH1 0x4 DUP1 CALLDATASIZE SUB DUP2 ADD SWAP1 PUSH2 0xAA SWAP2 SWAP1 PUSH2 0x919 JUMP JUMPDEST PUSH2 0x1F5 JUMP JUMPDEST PUSH1 0x40 MLOAD PUSH2 0xBC SWAP2 SWAP1 PUSH2 0x95C JUMP JUMPDEST PUSH1 0x40 MLOAD DUP1 SWAP2 SUB SWAP1 RETURN JUMPDEST CALLVALUE DUP1 ISZERO PUSH2 0xD0 JUMPI PUSH0 DUP1 REVERT JUMPDEST POP PUSH2 0xD9 PUSH2 0x20A JUMP JUMPDEST PUSH1 0x40 MLOAD PUSH2 0xE6 SWAP2 SWAP1 PUSH2 0x95C JUMP JUMPDEST PUSH1 0x40 MLOAD DUP1 SWAP2 SUB SWAP1 RETURN JUMPDEST CALLVALUE DUP1 ISZERO PUSH2 0xFA JUMPI PUSH0 DUP1 REVERT JUMPDEST POP PUSH2 0x115 PUSH1 0x4 DUP1 CALLDATASIZE SUB DUP2 ADD SWAP1 PUSH2 0x110 SWAP2 SWAP1 PUSH2 0x99F JUMP JUMPDEST PUSH2 0x20F JUMP JUMPDEST STOP JUMPDEST PUSH2 0x11F PUSH2 0x436 JUMP JUMPDEST STOP JUMPDEST CALLVALUE DUP1 ISZERO PUSH2 0x12C JUMPI PUSH0 DUP1 REVERT JUMPDEST POP PUSH2 0x147 PUSH1 0x4 DUP1 CALLDATASIZE SUB DUP2 ADD SWAP1 PUSH2 0x142 SWAP2 SWAP1 PUSH2 0x919 JUMP JUMPDEST PUSH2 0x51A JUMP JUMPDEST PUSH1 0x40 MLOAD PUSH2 0x154 SWAP2 SWAP1 PUSH2 0x95C JUMP JUMPDEST PUSH1 0x40 MLOAD DUP1 SWAP2 SUB SWAP1 RETURN JUMPDEST CALLVALUE DUP1 ISZERO PUSH2 0x168 JUMPI PUSH0 DUP1 REVERT JUMPDEST POP PUSH2 0x183 PUSH1 0x4 DUP1 CALLDATASIZE SUB DUP2 ADD SWAP1 PUSH2 0x17E SWAP2 SWAP1 PUSH2 0x919 JUMP JUMPDEST PUSH2 0x577 JUMP JUMPDEST PUSH1 0x40 MLOAD PUSH2 0x190 SWAP2 SWAP1 PUSH2 0x95C JUMP JUMPDEST PUSH1 0x40 MLOAD DUP1 SWAP2 SUB SWAP1 RETURN JUMPDEST CALLVALUE DUP1 ISZERO PUSH2 0x1A4 JUMPI PUSH0 DUP1 REVERT JUMPDEST POP PUSH2 0x1BF PUSH1 0x4 DUP1 CALLDATASIZE SUB DUP2 ADD SWAP1 PUSH2 0x1BA SWAP2 SWAP1 PUSH2 0x99F JUMP JUMPDEST PUSH2 0x58B JUMP JUMPDEST STOP JUMPDEST CALLVALUE DUP1 ISZERO PUSH2 0x1CC JUMPI PUSH0 DUP1 REVERT JUMPDEST POP PUSH2 0x1D5 PUSH2 0x751 JUMP JUMPDEST PUSH1 0x40 MLOAD PUSH2 0x1E2 SWAP2 SWAP1 PUSH2 0x95C JUMP JUMPDEST PUSH1 0x40 MLOAD DUP1 SWAP2 SUB SWAP1 RETURN JUMPDEST PUSH2 0x1F3 PUSH2 0x756 JUMP JUMPDEST STOP JUMPDEST PUSH1 0x1 PUSH1 0x20 MSTORE DUP1 PUSH0 MSTORE PUSH1 0x40 PUSH0 KECCAK256 PUSH0 SWAP2 POP SWAP1 POP SLOAD DUP2 JUMP JUMPDEST PUSH1 0x64 DUP2 JUMP JUMPDEST PUSH0 DUP2 GT PUSH2 0x251 JUMPI PUSH1 0x40 MLOAD PUSH32 0x8C379A000000000000000000000000000000000000000000000000000000000 DUP2 MSTORE PUSH1 0x4 ADD PUSH2 0x248 SWAP1 PUSH2 0xA4A JUMP JUMPDEST PUSH1 0x40 MLOAD DUP1 SWAP2 SUB SWAP1 REVERT JUMPDEST PUSH0 PUSH1 0x1 PUSH0 CALLER PUSH20 0xFFFFFFFFFFFFFFFFFFFFFFFFFFFFFFFFFFFFFFFF AND PUSH20 0xFFFFFFFFFFFFFFFFFFFFFFFFFFFFFFFFFFFFFFFF AND DUP2 MSTORE PUSH1 0x20 ADD SWAP1 DUP2 MSTORE PUSH1 0x20 ADD PUSH0 KECCAK256 SLOAD EQ PUSH2 0x2D0 JUMPI PUSH1 0x40 MLOAD PUSH32 0x8C379A000000000000000000000000000000000000000000000000000000000 DUP2 MSTORE PUSH1 0x4 ADD PUSH2 0x2C7 SWAP1 PUSH2 0xAD8 JUMP JUMPDEST PUSH1 0x40 MLOAD DUP1 SWAP2 SUB SWAP1 REVERT JUMPDEST DUP1 PUSH0 DUP1 CALLER PUSH20 0xFFFFFFFFFFFFFFFFFFFFFFFFFFFFFFFFFFFFFFFF AND PUSH20 0xFFFFFFFFFFFFFFFFFFFFFFFFFFFFFFFFFFFFFFFF AND DUP2 MSTORE PUSH1 0x20 ADD SWAP1 DUP2 MSTORE PUSH1 0x20 ADD PUSH0 KECCAK256 SLOAD LT ISZERO PUSH2 0x34F JUMPI PUSH1 0x40 MLOAD PUSH32 0x8C379A000000000000000000000000000000000000000000000000000000000 DUP2 MSTORE PUSH1 0x4 ADD PUSH2 0x346 SWAP1 PUSH2 0xB66 JUMP JUMPDEST PUSH1 0x40 MLOAD DUP1 SWAP2 SUB SWAP1 REVERT JUMPDEST DUP1 PUSH0 DUP1 CALLER PUSH20 0xFFFFFFFFFFFFFFFFFFFFFFFFFFFFFFFFFFFFFFFF AND PUSH20 0xFFFFFFFFFFFFFFFFFFFFFFFFFFFFFFFFFFFFFFFF AND DUP2 MSTORE PUSH1 0x20 ADD SWAP1 DUP2 MSTORE PUSH1 0x20 ADD PUSH0 KECCAK256 PUSH0 DUP3 DUP3 SLOAD PUSH2 0x39A SWAP2 SWAP1 PUSH2 0xBB1 JUMP JUMPDEST SWAP3 POP POP DUP2 SWAP1 SSTORE POP CALLER PUSH20 0xFFFFFFFFFFFFFFFFFFFFFFFFFFFFFFFFFFFFFFFF AND PUSH2 0x8FC DUP3 SWAP1 DUP2 ISZERO MUL SWAP1 PUSH1 0x40 MLOAD PUSH0 PUSH1 0x40 MLOAD DUP1 DUP4 SUB DUP2 DUP6 DUP9 DUP9 CALL SWAP4 POP POP POP POP ISZERO DUP1 ISZERO PUSH2 0x3E4 JUMPI RETURNDATASIZE PUSH0 DUP1 RETURNDATACOPY RETURNDATASIZE PUSH0 REVERT JUMPDEST POP CALLER PUSH20 0xFFFFFFFFFFFFFFFFFFFFFFFFFFFFFFFFFFFFFFFF AND PUSH32 0xC30FCFBCAAC9E0DEFFA719714EAA82396FF506A0D0D0EEBE170830177288715D DUP3 PUSH1 0x40 MLOAD PUSH2 0x42B SWAP2 SWAP1 PUSH2 0x95C JUMP JUMPDEST PUSH1 0x40 MLOAD DUP1 SWAP2 SUB SWAP1 LOG2 POP JUMP JUMPDEST PUSH0 CALLVALUE GT PUSH2 0x478 JUMPI PUSH1 0x40 MLOAD PUSH32 0x8C379A000000000000000000000000000000000000000000000000000000000 DUP2 MSTORE PUSH1 0x4 ADD PUSH2 0x46F SWAP1 PUSH2 0xC2E JUMP JUMPDEST PUSH1 0x40 MLOAD DUP1 SWAP2 SUB SWAP1 REVERT JUMPDEST CALLVALUE PUSH0 DUP1 CALLER PUSH20 0xFFFFFFFFFFFFFFFFFFFFFFFFFFFFFFFFFFFFFFFF AND PUSH20 0xFFFFFFFFFFFFFFFFFFFFFFFFFFFFFFFFFFFFFFFF AND DUP2 MSTORE PUSH1 0x20 ADD SWAP1 DUP2 MSTORE PUSH1 0x20 ADD PUSH0 KECCAK256 PUSH0 DUP3 DUP3 SLOAD PUSH2 0x4C3 SWAP2 SWAP1 PUSH2 0xC4C JUMP JUMPDEST SWAP3 POP POP DUP2 SWAP1 SSTORE POP CALLER PUSH20 0xFFFFFFFFFFFFFFFFFFFFFFFFFFFFFFFFFFFFFFFF AND PUSH32 0x2DA466A7B24304F47E87FA2E1E5A81B9831CE54FEC19055CE277CA2F39BA42C4 CALLVALUE PUSH1 0x40 MLOAD PUSH2 0x510 SWAP2 SWAP1 PUSH2 0x95C JUMP JUMPDEST PUSH1 0x40 MLOAD DUP1 SWAP2 SUB SWAP1 LOG2 JUMP JUMPDEST PUSH0 PUSH1 0x96 PUSH1 0x64 PUSH0 DUP1 DUP6 PUSH20 0xFFFFFFFFFFFFFFFFFFFFFFFFFFFFFFFFFFFFFFFF AND PUSH20 0xFFFFFFFFFFFFFFFFFFFFFFFFFFFFFFFFFFFFFFFF AND DUP2 MSTORE PUSH1 0x20 ADD SWAP1 DUP2 MSTORE PUSH1 0x20 ADD PUSH0 KECCAK256 SLOAD PUSH2 0x566 SWAP2 SWAP1 PUSH2 0xC7F JUMP JUMPDEST PUSH2 0x570 SWAP2 SWAP1 PUSH2 0xCED JUMP JUMPDEST SWAP1 POP SWAP2 SWAP1 POP JUMP JUMPDEST PUSH0 PUSH1 0x20 MSTORE DUP1 PUSH0 MSTORE PUSH1 0x40 PUSH0 KECCAK256 PUSH0 SWAP2 POP SWAP1 POP SLOAD DUP2 JUMP JUMPDEST PUSH0 PUSH1 0x96 PUSH1 0x64 PUSH0 DUP1 CALLER PUSH20 0xFFFFFFFFFFFFFFFFFFFFFFFFFFFFFFFFFFFFFFFF AND PUSH20 0xFFFFFFFFFFFFFFFFFFFFFFFFFFFFFFFFFFFFFFFF AND DUP2 MSTORE PUSH1 0x20 ADD SWAP1 DUP2 MSTORE PUSH1 0x20 ADD PUSH0 KECCAK256 SLOAD PUSH2 0x5D7 SWAP2 SWAP1 PUSH2 0xC7F JUMP JUMPDEST PUSH2 0x5E1 SWAP2 SWAP1 PUSH2 0xCED JUMP JUMPDEST SWAP1 POP PUSH0 DUP3 GT PUSH2 0x625 JUMPI PUSH1 0x40 MLOAD PUSH32 0x8C379A000000000000000000000000000000000000000000000000000000000 DUP2 MSTORE PUSH1 0x4 ADD PUSH2 0x61C SWAP1 PUSH2 0xD8D JUMP JUMPDEST PUSH1 0x40 MLOAD DUP1 SWAP2 SUB SWAP1 REVERT JUMPDEST DUP1 DUP3 GT ISZERO PUSH2 0x668 JUMPI PUSH1 0x40 MLOAD PUSH32 0x8C379A000000000000000000000000000000000000000000000000000000000 DUP2 MSTORE PUSH1 0x4 ADD PUSH2 0x65F SWAP1 PUSH2 0xE1B JUMP JUMPDEST PUSH1 0x40 MLOAD DUP1 SWAP2 SUB SWAP1 REVERT JUMPDEST DUP2 PUSH1 0x1 PUSH0 CALLER PUSH20 0xFFFFFFFFFFFFFFFFFFFFFFFFFFFFFFFFFFFFFFFF AND PUSH20 0xFFFFFFFFFFFFFFFFFFFFFFFFFFFFFFFFFFFFFFFF AND DUP2 MSTORE PUSH1 0x20 ADD SWAP1 DUP2 MSTORE PUSH1 0x20 ADD PUSH0 KECCAK256 PUSH0 DUP3 DUP3 SLOAD PUSH2 0x6B4 SWAP2 SWAP1 PUSH2 0xC4C JUMP JUMPDEST SWAP3 POP POP DUP2 SWAP1 SSTORE POP CALLER PUSH20 0xFFFFFFFFFFFFFFFFFFFFFFFFFFFFFFFFFFFFFFFF AND PUSH2 0x8FC DUP4 SWAP1 DUP2 ISZERO MUL SWAP1 PUSH1 0x40 MLOAD PUSH0 PUSH1 0x40 MLOAD DUP1 DUP4 SUB DUP2 DUP6 DUP9 DUP9 CALL SWAP4 POP POP POP POP ISZERO DUP1 ISZERO PUSH2 0x6FE JUMPI RETURNDATASIZE PUSH0 DUP1 RETURNDATACOPY RETURNDATASIZE PUSH0 REVERT JUMPDEST POP CALLER PUSH20 0xFFFFFFFFFFFFFFFFFFFFFFFFFFFFFFFFFFFFFFFF AND PUSH32 0xAC59582E5396ACA512FA873A2047E7F4C80F8F55D4A06CB34A78A0187F62719F DUP4 PUSH1 0x40 MLOAD PUSH2 0x745 SWAP2 SWAP1 PUSH2 0x95C JUMP JUMPDEST PUSH1 0x40 MLOAD DUP1 SWAP2 SUB SWAP1 LOG2 POP POP JUMP JUMPDEST PUSH1 0x96 DUP2 JUMP JUMPDEST PUSH0 CALLVALUE GT PUSH2 0x798 JUMPI PUSH1 0x40 MLOAD PUSH32 0x8C379A000000000000000000000000000000000000000000000000000000000 DUP2 MSTORE PUSH1 0x4 ADD PUSH2 0x78F SWAP1 PUSH2 0xEA9 JUMP JUMPDEST PUSH1 0x40 MLOAD DUP1 SWAP2 SUB SWAP1 REVERT JUMPDEST CALLVALUE PUSH1 0x1 PUSH0 CALLER PUSH20 0xFFFFFFFFFFFFFFFFFFFFFFFFFFFFFFFFFFFFFFFF AND PUSH20 0xFFFFFFFFFFFFFFFFFFFFFFFFFFFFFFFFFFFFFFFF AND DUP2 MSTORE PUSH1 0x20 ADD SWAP1 DUP2 MSTORE PUSH1 0x20 ADD PUSH0 KECCAK256 SLOAD LT ISZERO PUSH2 0x818 JUMPI PUSH1 0x40 MLOAD PUSH32 0x8C379A000000000000000000000000000000000000000000000000000000000 DUP2 MSTORE PUSH1 0x4 ADD PUSH2 0x80F SWAP1 PUSH2 0xF37 JUMP JUMPDEST PUSH1 0x40 MLOAD DUP1 SWAP2 SUB SWAP1 REVERT JUMPDEST CALLVALUE PUSH1 0x1 PUSH0 CALLER PUSH20 0xFFFFFFFFFFFFFFFFFFFFFFFFFFFFFFFFFFFFFFFF AND PUSH20 0xFFFFFFFFFFFFFFFFFFFFFFFFFFFFFFFFFFFFFFFF AND DUP2 MSTORE PUSH1 0x20 ADD SWAP1 DUP2 MSTORE PUSH1 0x20 ADD PUSH0 KECCAK256 PUSH0 DUP3 DUP3 SLOAD PUSH2 0x864 SWAP2 SWAP1 PUSH2 0xBB1 JUMP JUMPDEST SWAP3 POP POP DUP2 SWAP1 SSTORE POP CALLER PUSH20 0xFFFFFFFFFFFFFFFFFFFFFFFFFFFFFFFFFFFFFFFF AND PUSH32 0x516911BCC3A0A7412A44601057C0A0A1EC628BDE049A84284BC428866534488 CALLVALUE PUSH1 0x40 MLOAD PUSH2 0x8B1 SWAP2 SWAP1 PUSH2 0x95C JUMP JUMPDEST PUSH1 0x40 MLOAD DUP1 SWAP2 SUB SWAP1 LOG2 JUMP JUMPDEST PUSH0 DUP1 REVERT JUMPDEST PUSH0 PUSH20 0xFFFFFFFFFFFFFFFFFFFFFFFFFFFFFFFFFFFFFFFF DUP3 AND SWAP1 POP SWAP2 SWAP1 POP JUMP JUMPDEST PUSH0 PUSH2 0x8E8 DUP3 PUSH2 0x8BF JUMP JUMPDEST SWAP1 POP SWAP2 SWAP1 POP JUMP JUMPDEST PUSH2 0x8F8 DUP2 PUSH2 0x8DE JUMP JUMPDEST DUP2 EQ PUSH2 0x902 JUMPI PUSH0 DUP1 REVERT JUMPDEST POP JUMP JUMPDEST PUSH0 DUP2 CALLDATALOAD SWAP1 POP PUSH2 0x913 DUP2 PUSH2 0x8EF JUMP JUMPDEST SWAP3 SWAP2 POP POP JUMP JUMPDEST PUSH0 PUSH1 0x20 DUP3 DUP5 SUB SLT ISZERO PUSH2 0x92E JUMPI PUSH2 0x92D PUSH2 0x8BB JUMP JUMPDEST JUMPDEST PUSH0 PUSH2 0x93B DUP5 DUP3 DUP6 ADD PUSH2 0x905 JUMP JUMPDEST SWAP2 POP POP SWAP3 SWAP2 POP POP JUMP JUMPDEST PUSH0 DUP2 SWAP1 POP SWAP2 SWAP1 POP JUMP JUMPDEST PUSH2 0x956 DUP2 PUSH2 0x944 JUMP JUMPDEST DUP3 MSTORE POP POP JUMP JUMPDEST PUSH0 PUSH1 0x20 DUP3 ADD SWAP1 POP PUSH2 0x96F PUSH0 DUP4 ADD DUP5 PUSH2 0x94D JUMP JUMPDEST SWAP3 SWAP2 POP POP JUMP JUMPDEST PUSH2 0x97E DUP2 PUSH2 0x944 JUMP JUMPDEST DUP2 EQ PUSH2 0x988 JUMPI PUSH0 DUP1 REVERT JUMPDEST POP JUMP JUMPDEST PUSH0 DUP2 CALLDATALOAD SWAP1 POP PUSH2 0x999 DUP2 PUSH2 0x975 JUMP JUMPDEST SWAP3 SWAP2 POP POP JUMP JUMPDEST PUSH0 PUSH1 0x20 DUP3 DUP5 SUB SLT ISZERO PUSH2 0x9B4 JUMPI PUSH2 0x9B3 PUSH2 0x8BB JUMP JUMPDEST JUMPDEST PUSH0 PUSH2 0x9C1 DUP5 DUP3 DUP6 ADD PUSH2 0x98B JUMP JUMPDEST SWAP2 POP POP SWAP3 SWAP2 POP POP JUMP JUMPDEST PUSH0 DUP3 DUP3 MSTORE PUSH1 0x20 DUP3 ADD SWAP1 POP SWAP3 SWAP2 POP POP JUMP JUMPDEST PUSH32 0x576974686472617720616D6F756E74206D757374206265206772656174657220 PUSH0 DUP3 ADD MSTORE PUSH32 0x7468616E20300000000000000000000000000000000000000000000000000000 PUSH1 0x20 DUP3 ADD MSTORE POP JUMP JUMPDEST PUSH0 PUSH2 0xA34 PUSH1 0x26 DUP4 PUSH2 0x9CA JUMP JUMPDEST SWAP2 POP PUSH2 0xA3F DUP3 PUSH2 0x9DA JUMP JUMPDEST PUSH1 0x40 DUP3 ADD SWAP1 POP SWAP2 SWAP1 POP JUMP JUMPDEST PUSH0 PUSH1 0x20 DUP3 ADD SWAP1 POP DUP2 DUP2 SUB PUSH0 DUP4 ADD MSTORE PUSH2 0xA61 DUP2 PUSH2 0xA28 JUMP JUMPDEST SWAP1 POP SWAP2 SWAP1 POP JUMP JUMPDEST PUSH32 0x43616E6E6F7420776974686472617720636F6C6C61746572616C207769746820 PUSH0 DUP3 ADD MSTORE PUSH32 0x6F75747374616E64696E67206C6F616E00000000000000000000000000000000 PUSH1 0x20 DUP3 ADD MSTORE POP JUMP JUMPDEST PUSH0 PUSH2 0xAC2 PUSH1 0x30 DUP4 PUSH2 0x9CA JUMP JUMPDEST SWAP2 POP PUSH2 0xACD DUP3 PUSH2 0xA68 JUMP JUMPDEST PUSH1 0x40 DUP3 ADD SWAP1 POP SWAP2 SWAP1 POP JUMP JUMPDEST PUSH0 PUSH1 0x20 DUP3 ADD SWAP1 POP DUP2 DUP2 SUB PUSH0 DUP4 ADD MSTORE PUSH2 0xAEF DUP2 PUSH2 0xAB6 JUMP JUMPDEST SWAP1 POP SWAP2 SWAP1 POP JUMP JUMPDEST PUSH32 0x576974686472617720616D6F756E74206578636565647320636F6C6C61746572 PUSH0 DUP3 ADD MSTORE PUSH32 0x616C2062616C616E636500000000000000000000000000000000000000000000 PUSH1 0x20 DUP3 ADD MSTORE POP JUMP JUMPDEST PUSH0 PUSH2 0xB50 PUSH1 0x2A DUP4 PUSH2 0x9CA JUMP JUMPDEST SWAP2 POP PUSH2 0xB5B DUP3 PUSH2 0xAF6 JUMP JUMPDEST PUSH1 0x40 DUP3 ADD SWAP1 POP SWAP2 SWAP1 POP JUMP JUMPDEST PUSH0 PUSH1 0x20 DUP3 ADD SWAP1 POP DUP2 DUP2 SUB PUSH0 DUP4 ADD MSTORE PUSH2 0xB7D DUP2 PUSH2 0xB44 JUMP JUMPDEST SWAP1 POP SWAP2 SWAP1 POP JUMP JUMPDEST PUSH32 0x4E487B7100000000000000000000000000000000000000000000000000000000 PUSH0 MSTORE PUSH1 0x11 PUSH1 0x4 MSTORE PUSH1 0x24 PUSH0 REVERT JUMPDEST PUSH0 PUSH2 0xBBB DUP3 PUSH2 0x944 JUMP JUMPDEST SWAP2 POP PUSH2 0xBC6 DUP4 PUSH2 0x944 JUMP JUMPDEST SWAP3 POP DUP3 DUP3 SUB SWAP1 POP DUP2 DUP2 GT ISZERO PUSH2 0xBDE JUMPI PUSH2 0xBDD PUSH2 0xB84 JUMP JUMPDEST JUMPDEST SWAP3 SWAP2 POP POP JUMP JUMPDEST PUSH32 0x4D757374206465706F73697420736F6D6520636F6C6C61746572616C00000000 PUSH0 DUP3 ADD MSTORE POP JUMP JUMPDEST PUSH0 PUSH2 0xC18 PUSH1 0x1C DUP4 PUSH2 0x9CA JUMP JUMPDEST SWAP2 POP PUSH2 0xC23 DUP3 PUSH2 0xBE4 JUMP JUMPDEST PUSH1 0x20 DUP3 ADD SWAP1 POP SWAP2 SWAP1 POP JUMP JUMPDEST PUSH0 PUSH1 0x20 DUP3 ADD SWAP1 POP DUP2 DUP2 SUB PUSH0 DUP4 ADD MSTORE PUSH2 0xC45 DUP2 PUSH2 0xC0C JUMP JUMPDEST SWAP1 POP SWAP2 SWAP1 POP JUMP JUMPDEST PUSH0 PUSH2 0xC56 DUP3 PUSH2 0x944 JUMP JUMPDEST SWAP2 POP PUSH2 0xC61 DUP4 PUSH2 0x944 JUMP JUMPDEST SWAP3 POP DUP3 DUP3 ADD SWAP1 POP DUP1 DUP3 GT ISZERO PUSH2 0xC79 JUMPI PUSH2 0xC78 PUSH2 0xB84 JUMP JUMPDEST JUMPDEST SWAP3 SWAP2 POP POP JUMP JUMPDEST PUSH0 PUSH2 0xC89 DUP3 PUSH2 0x944 JUMP JUMPDEST SWAP2 POP PUSH2 0xC94 DUP4 PUSH2 0x944 JUMP JUMPDEST SWAP3 POP DUP3 DUP3 MUL PUSH2 0xCA2 DUP2 PUSH2 0x944 JUMP JUMPDEST SWAP2 POP DUP3 DUP3 DIV DUP5 EQ DUP4 ISZERO OR PUSH2 0xCB9 JUMPI PUSH2 0xCB8 PUSH2 0xB84 JUMP JUMPDEST JUMPDEST POP SWAP3 SWAP2 POP POP JUMP JUMPDEST PUSH32 0x4E487B7100000000000000000000000000000000000000000000000000000000 PUSH0 MSTORE PUSH1 0x12 PUSH1 0x4 MSTORE PUSH1 0x24 PUSH0 REVERT JUMPDEST PUSH0 PUSH2 0xCF7 DUP3 PUSH2 0x944 JUMP JUMPDEST SWAP2 POP PUSH2 0xD02 DUP4 PUSH2 0x944 JUMP JUMPDEST SWAP3 POP DUP3 PUSH2 0xD12 JUMPI PUSH2 0xD11 PUSH2 0xCC0 JUMP JUMPDEST JUMPDEST DUP3 DUP3 DIV SWAP1 POP SWAP3 SWAP2 POP POP JUMP JUMPDEST PUSH32 0x426F72726F7720616D6F756E74206D7573742062652067726561746572207468 PUSH0 DUP3 ADD MSTORE PUSH32 0x616E203000000000000000000000000000000000000000000000000000000000 PUSH1 0x20 DUP3 ADD MSTORE POP JUMP JUMPDEST PUSH0 PUSH2 0xD77 PUSH1 0x24 DUP4 PUSH2 0x9CA JUMP JUMPDEST SWAP2 POP PUSH2 0xD82 DUP3 PUSH2 0xD1D JUMP JUMPDEST PUSH1 0x40 DUP3 ADD SWAP1 POP SWAP2 SWAP1 POP JUMP JUMPDEST PUSH0 PUSH1 0x20 DUP3 ADD SWAP1 POP DUP2 DUP2 SUB PUSH0 DUP4 ADD MSTORE PUSH2 0xDA4 DUP2 PUSH2 0xD6B JUMP JUMPDEST SWAP1 POP SWAP2 SWAP1 POP JUMP JUMPDEST PUSH32 0x426F72726F7720616D6F756E74206578636565647320616C6C6F776564206C69 PUSH0 DUP3 ADD MSTORE PUSH32 0x6D69740000000000000000000000000000000000000000000000000000000000 PUSH1 0x20 DUP3 ADD MSTORE POP JUMP JUMPDEST PUSH0 PUSH2 0xE05 PUSH1 0x23 DUP4 PUSH2 0x9CA JUMP JUMPDEST SWAP2 POP PUSH2 0xE10 DUP3 PUSH2 0xDAB JUMP JUMPDEST PUSH1 0x40 DUP3 ADD SWAP1 POP SWAP2 SWAP1 POP JUMP JUMPDEST PUSH0 PUSH1 0x20 DUP3 ADD SWAP1 POP DUP2 DUP2 SUB PUSH0 DUP4 ADD MSTORE PUSH2 0xE32 DUP2 PUSH2 0xDF9 JUMP JUMPDEST SWAP1 POP SWAP2 SWAP1 POP JUMP JUMPDEST PUSH32 0x526570617920616D6F756E74206D757374206265206772656174657220746861 PUSH0 DUP3 ADD MSTORE PUSH32 0x6E20300000000000000000000000000000000000000000000000000000000000 PUSH1 0x20 DUP3 ADD MSTORE POP JUMP JUMPDEST PUSH0 PUSH2 0xE93 PUSH1 0x23 DUP4 PUSH2 0x9CA JUMP JUMPDEST SWAP2 POP PUSH2 0xE9E DUP3 PUSH2 0xE39 JUMP JUMPDEST PUSH1 0x40 DUP3 ADD SWAP1 POP SWAP2 SWAP1 POP JUMP JUMPDEST PUSH0 PUSH1 0x20 DUP3 ADD SWAP1 POP DUP2 DUP2 SUB PUSH0 DUP4 ADD MSTORE PUSH2 0xEC0 DUP2 PUSH2 0xE87 JUMP JUMPDEST SWAP1 POP SWAP2 SWAP1 POP JUMP JUMPDEST PUSH32 0x526570617920616D6F756E74206578636565647320626F72726F776564206261 PUSH0 DUP3 ADD MSTORE PUSH32 0x6C616E6365000000000000000000000000000000000000000000000000000000 PUSH1 0x20 DUP3 ADD MSTORE POP JUMP JUMPDEST PUSH0 PUSH2 0xF21 PUSH1 0x25 DUP4 PUSH2 0x9CA JUMP JUMPDEST SWAP2 POP PUSH2 0xF2C DUP3 PUSH2 0xEC7 JUMP JUMPDEST PUSH1 0x40 DUP3 ADD SWAP1 POP SWAP2 SWAP1 POP JUMP JUMPDEST PUSH0 PUSH1 0x20 DUP3 ADD SWAP1 POP DUP2 DUP2 SUB PUSH0 DUP4 ADD MSTORE PUSH2 0xF4E DUP2 PUSH2 0xF15 JUMP JUMPDEST SWAP1 POP SWAP2 SWAP1 POP JUMP INVALID LOG2 PUSH5 0x6970667358 0x22 SLT KECCAK256 0xDE PUSH14 0x60B92B3BD067504B30CC5751D142 PUSH12 0x783B7A5936AD47E44968A533 0xC3 0x4E CALLCODE PUSH5 0x736F6C6343 STOP ADDMOD BYTE STOP CALLER "
				},
				"gasEstimates": {
					"creation": {
						"codeDepositCost": "795800",
						"executionCost": "829",
						"totalCost": "796629"
					},
					"external": {
						"COLLATERAL_RATIO()": "391",
						"DECIMALS()": "348",
						"borrow(uint256)": "infinite",
						"borrowedBalance(address)": "2803",
						"collateralBalance(address)": "2823",
						"depositCollateral()": "infinite",
						"getMaxBorrowable(address)": "infinite",
						"repayLoan()": "infinite",
						"withdrawCollateral(uint256)": "infinite"
					}
				},
				"methodIdentifiers": {
					"COLLATERAL_RATIO()": "d9e69a05",
					"DECIMALS()": "2e0f2625",
					"borrow(uint256)": "c5ebeaec",
					"borrowedBalance(address)": "02b28d4b",
					"collateralBalance(address)": "a1bf2840",
					"depositCollateral()": "6f758140",
					"getMaxBorrowable(address)": "95ec2c8a",
					"repayLoan()": "f966ade7",
					"withdrawCollateral(uint256)": "6112fe2e"
				}
			},
			"storageLayout": {
				"storage": [
					{
						"astId": 29,
						"contract": "contracts/polygon.sol:BorrowingLendingPlatform",
						"label": "collateralBalance",
						"offset": 0,
						"slot": "0",
						"type": "t_mapping(t_address,t_uint256)"
					},
					{
						"astId": 33,
						"contract": "contracts/polygon.sol:BorrowingLendingPlatform",
						"label": "borrowedBalance",
						"offset": 0,
						"slot": "1",
						"type": "t_mapping(t_address,t_uint256)"
					}
				],
				"types": {
					"t_address": {
						"encoding": "inplace",
						"label": "address",
						"numberOfBytes": "20"
					},
					"t_mapping(t_address,t_uint256)": {
						"encoding": "mapping",
						"key": "t_address",
						"label": "mapping(address => uint256)",
						"numberOfBytes": "32",
						"value": "t_uint256"
					},
					"t_uint256": {
						"encoding": "inplace",
						"label": "uint256",
						"numberOfBytes": "32"
					}
				}
			},
			"userdoc": {
				"kind": "user",
				"methods": {},
				"version": 1
			}
		}
	}
}